:020000040800F2
:1000000058090020AD1600080D170008C72E00087B
:100010000D1700080D1700080D170008000000005C
:100020000000000000000000000000000D170008A4
:100030000D170008000000000D170008E13400084B
:100040000D1700080D1700080D1700080D17000800
:100050000D1700080D1700086D2F00080D17000878
:100060000D1700080D1700080D1700080D170008E0
:100070000D1700080D1700080D1700080D170008D0
:100080000D1700080D1700080D1700080D170008C0
:100090000D1700080D1700080D170008913800080B
:1000A0000D1700080D1700080D1700080D170008A0
:1000B000010400080D1700080D1700080D170008AF
:1000C0000D1700080D1700080D1700080D17000880
:1000D0000D1700080D1700080D1700080D17000870
:1000E0000D1700080D1700080D170008000000008C
:1000F0000000000000000000000000000000000000
:1001000000000000000000005FF808F180B582B038
:1001100000AF7860144B1B785A1CD1B2124A117090
:100120007A68D1B2114AD1540F4B1B780F4A002183
:10013000D1540D4B1B7801330F2B05D87B680A2B4C
:1001400002D07B68002B0CD1074B00221A70074BA2
:1001500004201946002202F0ABFE0346002B00D01B
:1001600000BF0837BD4680BD700400206004002039
:1001700080B485B000AF786039600023FB817B6874
:100180001B88FB817A682E4B9A4213D07A682D4BDC
:100190009A420FD07B68B3F1804F0BD07A682A4B1C
:1001A0009A4207D07A68294B9A4203D07A68284B42
:1001B0009A4208D1FB8923F07003FB813B685A887F
:1001C000FB891343FB817A68224B9A420CD07A68F0
:1001D000214B9A4208D0FB8923F44073FB813B6892
:1001E000DA88FB891343FB817B68FA891A803B68B4
:1001F0009A887B689A853B681A887B681A857A6832
:100200000F4B9A420FD07A680E4B9A420BD07A6805
:10021000124B9A4207D07A68114B9A4203D07A68FF
:10022000104B9A4204D13B681B7A1A467B681A86A7
:100230007B6801229A821437BD465DF8047B7047C3
:10024000002C014000340140000400400008004040
:10025000000C00400010004000140040004001402D
:10026000004401400048014080B483B000AF786092
:100270000B46FB70FB78002B08D07B681B889BB279
:1002800043F001039AB27B681A8007E07B681B8801
:100290009BB223F001039AB27B681A800C37BD46EB
:1002A0005DF8047B704700BF80B483B000AF786016
:1002B00013460A467A807B707B78002B08D07B68D7
:1002C0009B899AB27B8813439AB27B689A8109E032
:1002D0007B689B899AB27B88DB439BB213409AB2BE
:1002E0007B689A810C37BD465DF8047B704700BF80
:1002F00080B485B000AF78600B467B800023FB7331
:100300000023BB8100237B817B681B8A9AB27B8898
:100310001340BB817B689B899AB27B8813407B81A9
:10032000BB89002B05D07B89002B02D00123FB73F6
:1003300001E00023FB73FB7B18461437BD465DF8D4
:10034000047B704780B483B000AF78600B467B803D
:100350007B88DB439AB27B681A820C37BD465DF816
:10036000047B704780B584B000AF184B00221A8020
:10037000174B00221A80174B00221A70164B0022CE
:100380001A700120012102F067F948F69F43BB80F3
:100390000023FB8040F2CF733B8100237B8100234D
:1003A0003B733B1D4FF080401946FFF7E1FE4FF0D5
:1003B00080400121FFF758FF4FF0804001210122CA
:1003C000FFF772FF1037BD4680BD00BFA6040020B6
:1003D000A8040020AA040020A404002080B582B054
:1003E00000AF1C233B7100237B710123BB710123F0
:1003F000FB713B1D184603F0ABFA0837BD4680BDC4
:1004000080B584B000AF0023FB600023BB600023F5
:100410007B604FF080400121FFF76AFF0346002B0D
:100420004FD04FF080400121FFF78CFF284B1B88F5
:100430001A46284B1B88D31A002BB8BF5B42FB60BF
:10044000FB68254A82FB03121211DB17D21A1346EE
:100450001B019B1A9B007B60786803F00DFD024630
:100460000B461046194618A3D3E9002303F06AFD92
:1004700002460B461046194603F076FF0346BB6062
:10048000134B1A88134B1A80114B00221A80134BFE
:100490001B780133DAB2114B1A70104B1B78032B07
:1004A0000FD10F4B1B780A2B0BD00D4B1B78013350
:1004B000DAB20B4B1A70094B1B780A48194601F047
:1004C0008DFE1037BD4680BD0C0A83328D26973FC6
:1004D000A6040020A80400201F85EB51AA040020D8
:1004E000A40400206049000880B586B000AFF86021
:1004F000B9607A60FB7000237B617B6900233B61FC
:10050000FB689B889BB243F480739AB2FB689A8025
:10051000FB78022B40F08C80F868B9687A68012378
:1005200000F000FDFB689B889BB243F480539AB2B5
:10053000FB689A80FB689B889BB243F400639AB285
:10054000FB689A804FF6FF733B61FB681B889BB288
:1005500043F480739AB2FB681A8006E03B695A1E26
:100560003A61002B01D1002363E2FB689B8A9BB2B6
:1005700003F00103002BF1D04FF6FF733B6197F8B6
:10058000203043F0010387F82030864B97F8202075
:100590001A70844B1B78DBB21A46FB681A8206E09D
:1005A0003B695A1E3A61002B01D1002341E2FB68EE
:1005B0009B8A9BB203F00203002BF1D0FB681B8BDC
:1005C0009BB27B61FA68784B9A4210D100BF4FF022
:1005D000007002F0A9FE0346002BF8D073480021FA
:1005E00002F086FE4FF0007002F0C8FE0FE000BF80
:1005F0004FF4003002F098FE0346002BF8D06C4810
:10060000002102F075FE4FF4003002F0B7FEFB68E7
:100610001B889BB243F400739AB2FB681A8000BF38
:10062000FB681B889BB203F40073002BF8D1FFE139
:10063000FB78002B40F0B4817B68012B70D14FF622
:10064000FF733B61FB681B889BB243F480739AB2D3
:10065000FB681A8006E03B695A1E3A61002B01D103
:100660000023E6E1FB689B8A9BB203F00103002BA9
:10067000F1D097F8203043F0010387F82030494B40
:1006800097F820201A70474B1B78DBB21A46FB689C
:100690001A824FF6FF733B6106E03B695A1E3A61CE
:1006A000002B01D10023C4E1FB689B8A9BB203F0BD
:1006B0000203002BF1D0FB681B889BB223F48063FC
:1006C0009AB2FB681A8072B6FB681B8B9BB27B6187
:1006D000FB681B889BB243F400739AB2FB681A80D4
:1006E00062B600BFFB689B8A9BB203F04003002BFD
:1006F000F8D0FB681B8A9BB2DAB2BB681A7000BFE5
:10070000FB681B889BB203F40073002BF8D1FB68D5
:100710001B889BB243F480639AB2FB681A8087E11E
:100720007B68022B40F09180FB681B889BB243F4EE
:1007300000639AB2FB681A804FF6FF733B61FB6857
:100740001B889BB243F480739AB2FB681A8006E060
:100750003B695A1E3A61002B01D1002369E1FB6815
:100760009B8A9BB203F00103002BF1D04FF6FF737D
:100770003B6197F8203043F0010387F82030094BA4
:1007800097F820201A70074B1B78DBB21A46FB68DB
:100790001A820FE03B695A1E3A61002B0AD10023EE
:1007A00047E100BFD8040020005400408000024010
:1007B00058000240FB689B8A9BB203F00203002BA7
:1007C000E8D072B6FB681B8B9BB27B61FB681B8811
:1007D0009BB223F480639AB2FB681A8062B600BFB2
:1007E000FB689B8A9BB203F00403002BF8D072B61F
:1007F000F868012103F0CEF9FB681B8A9BB2DAB2DC
:10080000BB681A7062B6BB680133BB60FB681B8AA9
:100810009BB2DAB2BB681A7000BFFB681B889BB240
:1008200003F40073002BF8D1FB681B889BB243F4E0
:1008300080639AB2FB681A80FB681B889BB223F422
:1008400000639AB2FB681A80F2E04FF6FF733B61D7
:10085000FB681B889BB243F480739AB2FB681A80D2
:1008600006E03B695A1E3A61002B01D10023E0E00B
:10087000FB689B8A9BB203F00103002BF1D04FF67B
:10088000FF733B6197F8203043F0010387F8203075
:100890006A4B97F820201A70684B1B78DBB21A4617
:1008A000FB681A8206E03B695A1E3A61002B01D1AF
:1008B0000023BEE0FB689B8A9BB203F00203002B7F
:1008C000F1D0FB681B8B9BB27B6155E07B68032BEF
:1008D00013D000BFFB689B8A9BB203F00403002B7C
:1008E000F8D0FB681B8A9BB2DAB2BB681A70BB688F
:1008F0000133BB607B68013B7B607B68032B3BD192
:1009000000BFFB689B8A9BB203F00403002BF8D066
:10091000FB681B889BB223F480639AB2FB681A8041
:1009200072B6FB681B8A9BB2DAB2BB681A70BB68EE
:100930000133BB60FB681B889BB243F400739AB21F
:10094000FB681A80FB681B8A9BB2DAB2BB681A701C
:1009500062B6BB680133BB6000BFFB689B8A9BB279
:1009600003F04003002BF8D0FB681B8A9BB2DAB27D
:10097000BB681A7000237B607B68002BA6D100BF88
:10098000FB681B889BB203F40073002BF8D1FB6853
:100990001B889BB243F480639AB2FB681A8047E0DD
:1009A000FB689B889BB243F400739AB2FB689A8001
:1009B000FB689B889BB243F480639AB2FB689A8081
:1009C0001F4B01221A6097F8203043F0010387F88B
:1009D00020301A4B97F820201A70FA68194B9A4267
:1009E00003D1194B7A681A6002E0184B7A681A60D2
:1009F000FB681B889BB243F480739AB2FB681A8031
:100A000000BFFB681B889BB203F48073002BF8D1F6
:100A100000BFFB681B8B9BB203F00203002BF8D1D5
:100A2000FB681B889BB243F480639AB2FB681A8010
:100A3000012318461837BD4680BD00BFD8040020EA
:100A40007404002000540040E0040020DC04002076
:100A500080B586B000AFF860B9607A60FB700023A3
:100A60007B617B6900233B61FB689B889BB243F4FD
:100A700080739AB2FB689A80FB78022B40F08C80DE
:100A80004FF6FF733B61F868B9687A68002300F09D
:100A900049FAFB689B889BB243F400639AB2FB68F7
:100AA0009A80FB681B889BB243F480739AB2FB6800
:100AB0001A8006E03B695A1E3A61002B01D10023DF
:100AC00028E1FB689B8A9BB203F00103002BF1D065
:100AD0004FF6FF733B6197F8203023F0010387F84E
:100AE00020308E4B97F820201A708C4B1B78DBB28D
:100AF0001A46FB681A8206E03B695A1E3A61002BCF
:100B000001D1002306E1FB689B8A9BB203F002033C
:100B1000002BF1D0FB681B8B9BB27B61FA68804B8A
:100B20009A4210D100BF4FF4001002F0FDFB0346C3
:100B3000002BF8D07B48002102F0DAFB4FF40010C4
:100B400002F01CFC0FE000BF4FF4005002F0ECFB81
:100B50000346002BF8D07448002102F0C9FB4FF483
:100B6000005002F00BFC00BFFB689B8A9BB203F0B5
:100B70000403002BF8D0FB681B889BB243F400737E
:100B80009AB2FB681A8000BFFB681B889BB203F413
:100B90000073002BF8D1BCE0FB78002B79D14FF625
:100BA000FF733B61FB681B889BB243F480739AB26E
:100BB000FB681A8006E03B695A1E3A61002B01D19E
:100BC0000023A7E0FB689B8A9BB203F00103002B84
:100BD000F1D097F8203023F0010387F820304F4BF5
:100BE00097F820201A704D4B1B78DBB21A46FB6831
:100BF0001A824FF6FF733B6106E03B695A1E3A6169
:100C0000002B01D1002385E0FB689B8A9BB203F097
:100C10000203002BF1D0FB681B8B9BB27B61BB688E
:100C20001B781A46FB681A82BB680133BB607B687D
:100C3000013B7B600FE000BFFB689B8A9BB203F027
:100C40000403002BF8D0BB681B781A46FB681A8295
:100C5000BB680133BB607B685A1E7A60002BEAD107
:100C600000BFFB689B8A9BB203F00403002BF8D003
:100C7000FB681B889BB243F400739AB2FB681A802E
:100C800000BFFB681B889BB203F40073002BF8D1F4
:100C90003FE0FB689B889BB243F400739AB2FB6809
:100CA0009A80FB689B889BB243F480639AB2FB688E
:100CB0009A801E4B00221A6097F8203023F001031F
:100CC00087F82030154B97F820201A70FA68144BDB
:100CD0009A4203D1164B7A681A6002E0154B7A6883
:100CE0001A60FB681B889BB243F480739AB2FB685E
:100CF0001A8000BFFB681B889BB203F48073002B33
:100D0000F8D100BFFB681B8B9BB203F00203002BE2
:100D1000F8D1012318461837BD4680BDD8040020FD
:100D2000005400406C000240440002407404002063
:100D3000E0040020DC04002080B588B000AF7860BB
:100D40000820012101F06AFC0120012101F048FC8A
:100D50007A68694B9A4223D14FF40010012101F0C7
:100D60007BFC4023BB830323BB771C23FB7707F16A
:100D70001C036248194600F0CDFC8023BB8307F1B9
:100D80001C035E48194600F0C5FC4FF40010012119
:100D900001F080FC4FF40010002101F07BFC24E006
:100DA0004FF48000012101F057FC4FF48063BB83B6
:100DB0000323BB771C23FB7707F11C034F4819461D
:100DC00000F0A8FC4FF40063BB8307F11C034B4801
:100DD000194600F09FFC4FF48000012101F05AFCFD
:100DE0004FF48000002101F055FC00233B824BF6BC
:100DF000FF737B822823BB824FF48063FB824FF416
:100E000080433B833E4BFB6007F10C033A48194695
:100E100002F0FEFD3023BB8207F10C03394819466E
:100E200002F0F6FD7A68344B9A4231D1364802F02E
:100E300065F9364B364A1A60344B00225A60334B00
:100E400010229A60314B4FF6FF72DA602F4B00226E
:100E50001A612E4B80225A612C4B00229A612B4B37
:100E60000022DA61294B00221A62284B4FF44052CB
:100E70005A62264B00229A622348244902F0FAF96A
:100E8000244802F03BF92348204902F0F3F930E00E
:100E9000214802F033F91D4B204A1A601B4B0022F7
:100EA0005A601A4B10229A60184B4FF6FF72DA60A4
:100EB000164B00221A61154B80225A61134B0022F7
:100EC0009A61124B0022DA61104B00221A620F4B1A
:100ED0004FF440525A620D4B00229A620E480B4961
:100EE00002F0C8F90E4802F009F90D48074902F06E
:100EF000C1F92037BD4680BD00540040000C0140C0
:100F0000A0860100005800406C000240AC040020A4
:100F1000105400408000024044000240105800403D
:100F20005800024080B584B000AFF860B9607A60C4
:100F30003B603B68002B2CD1BA682D4B5A602C4B80
:100F400010229A602A4B7A68DA60FA68294B9A4232
:100F50000FD1274B284A1A602848002102F0C8F90F
:100F60002648234902F086F92448012102F0C0F9FD
:100F70003BE01F4B224A1A602248002102F0B8F9D8
:100F800020481B4902F076F91E48012102F0B0F911
:100F90002BE0BA68164B5A60154B00229A60144B2E
:100FA0007A68DA60FA68134B9A420FD1104B124AF2
:100FB0001A601548002102F09BF913480C4902F011
:100FC00059F91148012102F093F90EE0084B0C4A3F
:100FD0001A600E48002102F08BF90C48044902F017
:100FE00049F90A48012102F083F91037BD4680BD56
:100FF000AC04002000540040105400406C0002403B
:101000001058004044000240800002405800024056
:1010100080B500AF154B154A126842F001021A6004
:10102000124A124B5968124B0B4053600F4A0F4B38
:101030001B6823F0847323F4803313600B4B0B4A3B
:10104000126822F480221A60084B084A526822F47F
:10105000FE025A60054B4FF41F029A6000F00CF834
:10106000044B4FF000629A6080BD00BF0010024048
:101070000000FFF800ED00E080B500AF00F002F8DE
:1010800080BD00BF80B483B000AF00237B6000232D
:101090003B603A4B394A126842F480321A60374B4F
:1010A0001B6803F400333B607B6801337B603B6863
:1010B000002B03D17B68B3F5A06FF0D12F4B1B68D9
:1010C00003F40033002B02D001233B6001E0002336
:1010D0003B603B68012B4BD1294B294A126842F0F7
:1010E00010021A60264B264A126822F003021A6088
:1010F000234B234A126842F002021A601F4B1F4A18
:1011000052685A601D4B1D4A52685A601B4B1B4A5D
:10111000526842F480625A60184B184A526822F4AE
:101120007C125A60154B154A526842F4E8125A6014
:10113000124B124A126842F080721A6000BF0F4BC5
:101140001B6803F00073002BF9D00C4B0B4A52685C
:1011500022F003025A60094B084A526842F0020228
:101160005A6000BF054B5B6803F00C03082BF9D1F4
:101170000C37BD465DF8047B704700BF001002408D
:101180000020024080B483B000AF0346FB71FB79BE
:10119000032B13D801A252F823F000BFAD110008B1
:1011A000B1110008B5110008B9110008052306E0C7
:1011B000082304E00E2302E01E2300E0FEE71846A9
:1011C0000C37BD465DF8047B704700BF80B582B028
:1011D00002AF0E4BD0221A70EE2300930C480B493D
:1011E00001220023FFF734FCEE230093084809494D
:1011F00001220023FFF778F9064B1B78552B01D10C
:10120000012300E000231846BD4680BD14000020E5
:1012100000580040E404002080B584B002AF78603C
:10122000434BAA221A70EE23009342484049012200
:101230000023FFF70DFCEE2300933E483E491622A3
:101240000023FFF751F93C4B1B781B029AB23A4B33
:101250005B7813439AB27B681A80374B9B781B02EA
:101260009AB2354BDB7813439AB27B685A80324B83
:101270001B791B029AB2304B5B7913439AB27B689D
:101280009A802D4B9B791B029AB22B4BDB7913432F
:101290009BB29AB27B68DA80274B1B7A1B029AB208
:1012A000254B5B7A13439BB29AB27B681A81224B1F
:1012B0009B7A1B029AB2204BDB7A13439BB29AB201
:1012C0007B685A811C4B1B7B1B029AB21A4B5B7BBF
:1012D00013439AB27B689A81174B9B7B1B029AB28D
:1012E000154BDB7B13439AB27B68DA81124B1B7C74
:1012F0001B029AB2104B5B7C13439AB27B681A8232
:101300000D4B9B7C1B029AB20B4BDB7C13439AB2B6
:101310007B685A82084B1B7D1B029AB2064B5B7D91
:1013200013439AB27B689A820837BD4680BD00BFDE
:101330001400002000580040E404002080B584B070
:1013400002AF7860174BF4221A70164B2E225A7097
:10135000EE2300931448134902220023FFF778FB81
:10136000052000F023FC0F4BF6221A70EE230093A9
:101370000D480C4901220023FFF76AFBEE2300937E
:1013800009480A4902220023FFF7AEF8074B1B78F1
:101390001A02064B5B781A437B689A610837BD4690
:1013A00080BD00BF1400002000580040E40400206D
:1013B00080B584B002AF7860234BF4221A707B684A
:1013C0009B8B1BB29B01DBB243F03403DBB2DAB27E
:1013D0001D4B5A70EE2300931C481B490222002328
:1013E000FFF736FB7B689B8BDBB21846FFF7CAFE24
:1013F0000346184600F0DAFB134BF6221A70EE2370
:1014000000931248104901220023FFF721FBEE232D
:1014100000930E480E4903220023FFF765F80C4B9A
:101420001B781A040A4B5B781B021A43084B9B7803
:101430001A437B689B8B1BB2C3F108031A417B687C
:101440001A620837BD4680BD1400002000580040D5
:10145000E404002080B582B000AF78607B689A69B0
:101460007B685B89D31A7A68128902FB03F3DA136B
:101470007B685A627B685B8A1BB2DA027B68596AB6
:101480007B689B8A1BB20B4492FBF3F27B689A62E7
:101490007B685A6A7B689B6A1A447B68DA627B685D
:1014A000DB6A08331A117B681A637B681B6B064A78
:1014B00082FB03129210DB17D31A0448194600F07E
:1014C0008DFE0837BD4680BD676666666C490008BC
:1014D00080B582B000AF78607B68DB6AA3F57A6282
:1014E0007B685A637B68DB891BB27A68526B7968C8
:1014F000496B01FB02F202FB03F3DA157B685A62C7
:101500007B685B881BB27A68526B02FB03F3DA12CA
:101510007B689A627B685A6A7B689B6A1A447B681C
:101520009A637B681B881BB29A007B689B6B1A448A
:101530007B689B8B1BB202FA03F302339A107B6821
:10154000DA637B689B881BB27A68526B02FB03F3F9
:101550005A137B685A627B685B6B7A68526B02FB3A
:1015600003F31A137B689A627B689B6A7A68928994
:1015700012B202FB03F31A147B689A627B685A6A00
:101580007B689B6A134402339A107B689A637B687A
:10159000DB887A68926B02F5004202FB03F3DA0BF8
:1015A0007B681A647B681B6A1A467B68DB6BD31AFC
:1015B0007A68928B12B24CF2503141FA02F202FB7D
:1015C00003F27B685A647B685B6C002B0ADB7B68E8
:1015D0005B6C5A007B681B6CB2FBF3F31A467B68AA
:1015E0009A6409E07B685A6C7B681B6CB2FBF3F36E
:1015F0005B001A467B689A647B689B6C1A127B6856
:101600005A627B685B6A7A68526A02FB03F27B6803
:101610005A627B685B6A40F6DE3202FB03F31A14FF
:101620007B685A627B689B6C0D4A02FB03F31A14B9
:101630007B689A627B689A6C7B68596A7B689B6A54
:101640000B4403F6CF631B111A447B689A647B68D2
:101650009B6C0448194600F0C1FD0837BD4680BDAB
:1016600043E3FFFF7849000880B584B000AF78609D
:101670004FF00003FB604FF07E50F96802F0F0FE7F
:1016800003461846074902F0F5FF0346BB60B868F9
:1016900003F040F903460448194600F09FFD103757
:1016A000BD4680BD002A2D478449000880B582B020
:1016B00000AF114B7B60114B3B6007E03B681A1D8C
:1016C0003A607A68111D796012681A603A680C4BAA
:1016D0009A42F3D30B480C494FF000028842B8BF3E
:1016E00040F8042BFFF6FAAFFFF792FC00F0B0F9D8
:1016F0000837BD4680BD00BFF84900080000002043
:1017000060040020600400205805002080B400AF71
:10171000FEE700BF80B489B000AF78603960002375
:10172000FB6100233B610023BB610023FB600023BE
:101730007B610023BB603B68DB7803F00F03FB6138
:101740003B68DB7803F01003002B04D03B689B78E8
:10175000FA691343FB613B681B88DBB2002B44D062
:101760007B681B687B610023BB6138E0BB69012299
:1017700002FA03F3FB603B681B881A46FB681340C0
:101780003B613A69FB689A4226D1BB699B00FB60CA
:10179000FB680F2202FA03F3BB60BB68DB437A6984
:1017A00013407B61FB68FA6902FA03F37A69134319
:1017B0007B613B68DB78282B05D1BB6901229A400D
:1017C0007B685A6108E03B68DB78482B04D1BB6931
:1017D00001229A407B681A61BB690133BB61BB6916
:1017E000072BC3D97B687A691A603B681B88FF2B7B
:1017F00046D97B685B687B610023BB613AE0BB69CB
:101800000833012202FA03F3FB603B681B881A4687
:10181000FB6813403B613A69FB689A4227D1BB6978
:101820009B00FB60FB680F2202FA03F3BB60BB68FE
:10183000DB437A6913407B61FB68FA6902FA03F3C0
:101840007A6913437B613B68DB78282B05D1BB6940
:10185000083301229A407B685A613B68DB78482B49
:1018600005D1BB69083301229A407B681A61BB69C4
:101870000133BB61BB69072BC1D97B687A695A60A8
:101880002437BD465DF8047B704700BF80B483B049
:1018900000AF78607B684FF6FF721A807B68022287
:1018A0009A707B680422DA700C37BD465DF8047BC1
:1018B000704700BF80B485B000AF78600B467B8076
:1018C0000023FB737B689A687B881340002B02D04F
:1018D0000123FB7301E00023FB73FB7B18461437E5
:1018E000BD465DF8047B704790B484B000AF0246FB
:1018F0000B46FA71BB710023FB60BB7903F0030355
:101900009B000F2202FA03F3FB60154BBA79920891
:10191000D2B21349B8798008C0B2023051F8200021
:10192000F968C9430140023243F822100C4BBA79DE
:101930009208D2B20A49B8798008C0B2023051F890
:101940002000FC79B97901F00301890004FA01F162
:101950000143023243F822101037BD4690BC704755
:101960000000014080B483B000AF03463960FB71D2
:1019700097F90730002B0BDA0D49FB7903F00F03C1
:10198000043B3A68D2B21201D2B20B441A7609E093
:10199000084997F907303A68D2B21201D2B20B4423
:1019A00083F800230C37BD465DF8047B704700BF09
:1019B00000ED00E000E100E080B582B000AF7860AB
:1019C0007B68B3F1807F01D3012311E00A4B7A6871
:1019D00022F07F42013A5A604FF0FF300F21FFF7AB
:1019E000C1FF054B00229A60034B07221A600023B7
:1019F00018460837BD4680BD10E000E080B500AF56
:101A0000022001F0C1FA012000F06EFC002000F07D
:101A10003DFC00204FF4601100F076FC012000F046
:101A200091FC00BF392000F053FE0346002BF9D093
:101A3000022000F097FC002000F0B0FC002000F035
:101A4000C9FC002000F0E2FC002000F0FBFC80BD9F
:101A500080B582B000AF00237B60FFF7D9FAFEF7B4
:101A600081FCFEF7BBFC01F0ABFA1D48FFF764F9FF
:101A700001F052FA01F000F9FFF7C0FF4FF47A705D
:101A8000402101F0E1FC01F095FD164B1A68164B60
:101A9000A3FB02139B091846FFF78EFF0346002B9A
:101AA00000D0FEE7FFF792FB0346002B03D00F4860
:101AB00000F094FB02E00E4800F090FB0D4B1B7809
:101AC000002B0BD00C4800F089FB00F019F80B4BF1
:101AD00000221A70074B00221A70EFE7EEE700BFF2
:101AE0000058004000000020D34D621094490008C7
:101AF000A8490008A4040020C0490008AA04002046
:101B000080B596B000AF01F0DFFC0246224B1A60B0
:101B1000224801F05BFD214B9B68184602F0FAFE5B
:101B200003461F48194600F059FB03233B843B1D25
:101B30001846FFF771FB3B1D1846FFF7FFFB3B1DE7
:101B40001846FFF735FC3B1D1846FFF783FC3B1D8D
:101B50001846FFF7BDFC3B1D1846FFF785FD7B6B64
:101B6000104A82FB03129210DB17D31A87F8573002
:101B7000022001F09BFA0346A7F85430042001F03C
:101B800095FA0346A7F85230074B1B78A7F8503058
:101B90005837BD4680BD00BF7C04002000050020F2
:101BA000CC49000867666666AB04002080B483B049
:101BB00000AF78607A68064B1A6000BF044B1B6860
:101BC000002BFBD10C37BD465DF8047B704700BF8E
:101BD0008004002080B400AF044B1B685A1E034BE6
:101BE0001A60BD465DF8047B704700BF800400208A
:101BF00080B582B000AF0346FB71FB791846FEF753
:101C000085FA0837BD4680BD80B483B000AF7860E8
:101C10000B46FB707B68FA781A70012318460C3764
:101C2000BD465DF8047B704780B485B000AF786036
:101C300039600023FB600AE07B685A1C7A603A68CE
:101C4000511C396012781A70FB680133FB603B68E5
:101C50001B78002BF0D1FB6818461437BD465DF8A1
:101C6000047B704780B586B000AFF8607A603B6057
:101C70000B46FB7200237B617B68013B7B603B680A
:101C8000092B10D93A681E4BA3FB0213DB08FA7A22
:101C9000F86811467A68FFF7E5FF78617B69FA68B2
:101CA0001344FB6011E00DE0FB7AF8681946FFF77A
:101CB000ABFFFB680133FB607B6901337B617B68B1
:101CC000013B7B607B68002BEEDC39680C4BA3FB8F
:101CD0000123DA0813469B0013445B00CA1AD3B2EF
:101CE0003033DBB2F8681946FFF78EFF03467A6996
:101CF00013447B617B6918461837BD4680BD00BF21
:101D0000CDCCCCCC80B586B000AFF8607A603B60BB
:101D10000B46FB7200237B613B68002B03DA3B68B8
:101D20005B423B6101E03B683B617B68013B7B6060
:101D30003B69092B21D93B68002B0DDA3A692F4BFF
:101D4000A3FB0213DB085B42FA7AF86811467A6853
:101D5000FFF7D8FF78610BE03A69284BA3FB021329
:101D6000DB08FA7AF86811467A68FFF7CBFF7861EA
:101D70007B69FA681344FB6026E03B68002B03DABA
:101D80007B68013B7B600EE00DE0FB7AF86819464A
:101D9000FFF73AFFFB680133FB607B6901337B612E
:101DA0007B68013B7B607B68002BEEDC3B68002B93
:101DB0000ADAF8682D21FFF727FF03467A691344F2
:101DC0007B61FB680133FB6039690C4BA3FB01238A
:101DD000DA0813469B0013445B00CA1AD3B23033AF
:101DE000DBB2F8681946FFF70FFF03467A69134420
:101DF0007B617B6918461837BD4680BDCDCCCCCC05
:101E000080B588B002AFF8607A600A46FA72BB7299
:101E100000237B617B68013B7B603B6A1B09002BD5
:101E200012D03B6A1909FA7ABB7A0091F868114618
:101E30007A68FFF7E5FF03467A6913447B617B69A3
:101E4000FA681344FB6011E00DE0FB7AF86819466C
:101E5000FFF7DAFEFB680133FB607B6901337B61CE
:101E60007B68013B7B607B68002BEEDC3B6A03F008
:101E70000F03092B0BD83B6ADBB203F00F03DBB275
:101E80003033DBB2F8681946FFF7BEFE19E0BB7AC3
:101E9000002B0BD03B6ADBB203F00F03DBB237330E
:101EA000DBB2F8681946FFF7AFFE0AE03B6ADBB227
:101EB00003F00F03DBB25733DBB2F8681946FFF7C4
:101EC000A3FE7B6901337B617B6918461837BD46E9
:101ED00080BD00BF80B58AB002AFF860B9607A609B
:101EE0003B600023BB6100237B61FB68002B03D0B8
:101EF000FB6800221A70F8E0F7E07B681B78252B5E
:101F00000BD0FB685A1CFA607A68511C7960127811
:101F10001A707B6901337B61E7E07B6801331B78D2
:101F2000252B0BD1FB685A1CFA6025221A707B689E
:101F300002337B607B6901337B61D6E02023FB7732
:101F40000023BB777B6801337B607B681B78302B79
:101F500005D13023FB777B6801337B600FE00EE017
:101F6000BB7F1A46920013445B00DAB27B681B7891
:101F70001344DBB2303BBB777B6801337B607B680B
:101F80001B782F2B03D97B681B78392BE8D9BA7FB4
:101F90007B6913441A46BB689A4205D9BB68DAB21A
:101FA0007B69DBB2D31ABB777B681B78583B202B4D
:101FB00000F28D8001A252F823F000BF89200008B2
:101FC000CF200008CF200008CF200008CF20000835
:101FD000CF200008CF200008CF200008CF20000825
:101FE000CF200008CF200008B920000841200008B9
:101FF000CF200008CF200008CF200008CF20000805
:1020000041200008CF200008CF200008CF20000882
:10201000CF200008CF200008CF200008CF200008E4
:10202000CF200008CF200008A5200008CF200008FE
:1020300057200008CF200008CF2000086D2000089E
:10204000BA7F3B68191D39601B68F97FF868FFF794
:1020500059FEB8613EE0BA7F3B68191D39601B68C4
:10206000F97FF868FFF7FEFDB86133E0BA7F3B689F
:10207000191D39601968FB7F0091F8681946002323
:10208000FFF7BEFEB86125E0BA7F3B68191D3960D5
:102090001968FB7F0091F86819460123FFF7B0FE2D
:1020A000B86117E03B681A1D3A601B68F86819466A
:1020B000FFF7BAFDB8610DE03B681A1D3A601B6876
:1020C000DBB2F8681946FFF79FFDB86102E04FF0F8
:1020D000FF3325E07B6801337B60BB69FA681344FA
:1020E000FB607A69BB6913447B617B681B78002BBA
:1020F00004D07A69BB689A42FFF4FFAE7A69BB6884
:102100009A4203D2FB6800221A7008E0FB68013B88
:10211000FB60FB6800221A707B69013B7B617B6975
:1021200018462037BD4680BD80B584B000AFF8604A
:10213000B9607A60F8686421BA687B68FFF7CAFE04
:10214000034618461037BD4680BD00BFB0B5A6B0E7
:1021500000AFF860B9607A60144B07F110041D46B7
:102160000FCD0FC40FCD0FC42B68236007F13403CC
:102170001846B9687A68FFF7D7FF0346632B09DD75
:102180000B4B1B68DB6807F110021046194600F084
:1021900059F8FEE707F134031846F96800F052F8E1
:1021A000034618469837BD46B0BD00BFD449000865
:1021B0004004002080B582B000AF78603960064BE3
:1021C0001B689B68184679683A68FFF7BFFF0346AB
:1021D00018460837BD4680BD400400200FB480B5C6
:1021E00082B000AF07F114033B6038693968FFF72C
:1021F000E1FF78607B6818460837BD46BDE880403F
:1022000004B0704780B582B000AF786039600C4B85
:102210001B689A683B689A4205D0094B1B68DA68CC
:102220003B689A4206D17B68DBB21846FFF7E0FCB8
:102230007B6801E04FF0FF3318460837BD4680BD8C
:102240004004002080B584B000AF7860396000237E
:10225000FB6012E07B681B7818463968FFF7D2FFF5
:102260000346B3F1FF3F02D14FF0FF330AE0FB68B2
:102270000133FB607B6801337B607B681B78002B3C
:10228000E8D1FB6818461037BD4680BD80B483B0E6
:1022900000AF7860134B134A126822F480321A6040
:1022A000104B104A126822F480221A607B68B3F542
:1022B000803F03D0B3F5802F07D00DE0094B094ACA
:1022C000126842F480321A6006E0064B054A126832
:1022D00042F4A0221A6000BF0C37BD465DF8047BB3
:1022E000704700BF0010024080B483B000AF0346C7
:1022F000FB71044BFA791A600C37BD465DF8047B1C
:10230000704700BF0000424280B485B000AF7860E3
:1023100039600023FB600A4B5B68FB60FB6823F4B9
:102320007C13FB607A683B681343FA681343FB60D5
:10233000034BFA685A601437BD465DF8047B70475A
:102340000010024080B483B000AF0346FB71044B21
:10235000FA791A600C37BD465DF8047B704700BF00
:102360006000424280B485B000AF78600023FB601B
:10237000094B5B68FB60FB6823F00303FB60FA68B2
:102380007B681343FB60044BFA685A601437BD4600
:102390005DF8047B704700BF0010024080B485B038
:1023A00000AF78600023FB60094B5B68FB60FB6853
:1023B00023F0F003FB60FA687B681343FB60044B77
:1023C000FA685A601437BD465DF8047B704700BF59
:1023D0000010024080B485B000AF78600023FB603D
:1023E000094B5B68FB60FB6823F4E063FB60FA6801
:1023F0007B681343FB60044BFA685A601437BD4690
:102400005DF8047B704700BF0010024080B485B0C7
:1024100000AF78600023FB60094B5B68FB60FB68E2
:1024200023F46053FB607B68DB00FA681343FB60B6
:10243000034BFA685A601437BD465DF8047B704759
:102440000010024080B485B000AF78600023FB60CC
:10245000094B5B68FB60FB6823F44043FB60FA6850
:102460007B681343FB60044BFA685A601437BD461F
:102470005DF8047B704700BF0010024080B487B055
:1024800000AF786000237B6100233B610023FB6089
:102490000023BB604D4B5B6803F00C037B617B69E1
:1024A000042B07D0082B09D0002B34D17B68484A75
:1024B0001A6034E07B68464A1A6030E0434B5B6840
:1024C00003F470133B61414B5B6803F48033FB60A2
:1024D0003B699B0C02333B61FB68002B06D13B69D7
:1024E0003C4A02FB03F27B681A6013E0374B5B68DF
:1024F00003F40033002B06D03B69364A02FB03F29B
:102500007B681A6006E03B69314A02FB03F27B6894
:102510001A6004E003E07B682D4A1A6000BF2B4B71
:102520005B6803F0F0037B617B691B097B612A4ACE
:102530007B6913441B78DBB2BB607B681A68BB689D
:10254000DA407B685A60214B5B6803F4E0637B618F
:102550007B691B0A7B61204A7B6913441B78DBB2D1
:10256000BB607B685A68BB68DA407B689A60174B2F
:102570005B6803F460537B617B69DB0A7B61164A0D
:102580007B6913441B78DBB2BB607B685A68BB680D
:10259000DA407B68DA600D4B5B6803F440437B6193
:1025A0007B699B0B7B610D4A7B6913441B78DBB213
:1025B000BB607B68DA68BB68B2FBF3F27B681A61C8
:1025C0001C37BD465DF8047B704700BF0010024019
:1025D00000127A0000093D00480400205804002041
:1025E00080B483B000AF78600B46FB70FB78002BA3
:1025F00006D0094B084A51697A680A435A6106E0D5
:10260000054B054A51697A68D2430A405A610C3732
:10261000BD465DF8047B70470010024080B483B073
:1026200000AF78600B46FB70FB78002B06D0094B9F
:10263000084A91697A680A439A6106E0054B054A9F
:1026400091697A68D2430A409A610C37BD465DF8B9
:10265000047B70470010024080B483B000AF786004
:102660000B46FB70FB78002B06D0094B084AD1695A
:102670007A680A43DA6106E0054B054AD1697A684F
:10268000D2430A40DA610C37BD465DF8047B7047DF
:102690000010024080B483B000AF78600B46FB703E
:1026A000FB78002B06D0094B084A11697A680A4367
:1026B0001A6106E0054B054A11697A68D2430A405F
:1026C0001A610C37BD465DF8047B7047001002406C
:1026D00080B487B000AF0346FB710023FB6000238A
:1026E0007B610023FB74FB795B09DBB2FB60FB6859
:1026F000012B03D1124B1B687B6109E0FB68022BA5
:1027000003D10F4B1B6A7B6102E00D4B5B6A7B615F
:10271000FB7903F01F03FB60FB687A6922FA03F37D
:1027200003F00103002B02D00123FB7401E000231E
:10273000FB74FB7C18461C37BD465DF8047B704774
:102740000010024080B485B000AF78600023FB60C9
:10275000324BFB607B689B79002B4DD02F4B2F4A6F
:1027600011687A681268D2430A401A602B4B2B4AD0
:1027700051687A681268D2430A405A607B681B79B4
:10278000FA681344FB60FB68FA6811687A6812689B
:102790000A431A60214B214A91687A681268D24331
:1027A0000A409A601D4B1D4AD1687A681268D2436C
:1027B0000A40DA607B685B79102B0ED1174B174A01
:1027C00091687A6812680A439A60144B134AD16878
:1027D0007A6812680A43DA601BE0104BFB607B6882
:1027E0005B79FA681344FB60FB68FA6811687A68E1
:1027F00012680A431A600CE07B681B79FA6813447C
:10280000FB60FB68FA6811687A681268D2430A4074
:102810001A601437BD465DF8047B70470004014020
:1028200080B485B000AF78600023FB730023BB60E9
:102830000C4B1A687B681340BB600A4B5A697B6873
:102840001340002B05D0BB68002B02D00123FB7383
:1028500001E00023FB73FB7B18461437BD465DF88F
:10286000047B70470004014080B483B000AF7860FF
:10287000034B7A685A610C37BD465DF8047B70479C
:102880000004014080B485B000AF78603960002357
:10289000FB600023FB727B685B68FB60FB6823F4D2
:1028A000702323F48073FB603B681A683B681B79D4
:1028B0001B021343FA681343FB607B68FA685A6093
:1028C0007B689B68FB60FA68164B1340FB603B68B3
:1028D000DA683B689B681A433B685B795B0013438B
:1028E000FA681343FB607B68FA689A607B68DB6A6E
:1028F000FB60FB6823F47003FB603B681B7C013BBF
:10290000DAB2FB7A1343FB72FB7A1B05FA681343B6
:10291000FB607B68FA68DA621437BD465DF8047BB9
:10292000704700BFFDF7F1FF80B483B000AF78605F
:102930000B46FB70FB78002B06D07B689B6843F04E
:1029400001027B689A6005E07B689B6823F00102C6
:102950007B689A600C37BD465DF8047B704700BF0A
:1029600080B483B000AF78600B46FB70FB78002B1F
:1029700006D07B689B6843F480727B689A6005E0B0
:102980007B689B6823F480727B689A600C37BD4635
:102990005DF8047B704700BF80B483B000AF7860FF
:1029A0007B689B6843F008027B689A600C37BD46E1
:1029B0005DF8047B704700BF80B485B000AF7860DD
:1029C0000023FB737B689B6803F00803002B02D095
:1029D0000123FB7301E00023FB73FB7B18461437D4
:1029E000BD465DF8047B704780B483B000AF78606B
:1029F0007B689B6843F004027B689A600C37BD4695
:102A00005DF8047B704700BF80B485B000AF78608C
:102A10000023FB737B689B6803F00403002B02D048
:102A20000123FB7301E00023FB73FB7B1846143783
:102A3000BD465DF8047B704780B483B000AF78601A
:102A40000B46FB70FB78002B06D07B689B6843F439
:102A5000A0027B689A6005E07B689B6823F4A00273
:102A60007B689A600C37BD465DF8047B704700BFF9
:102A700080B485B000AF7860F970BA707B700023C5
:102A8000FB600023BB60FB78092B23D97B68DB68E4
:102A9000FB60FB78A3F10A0213465B001344072294
:102AA00002FA03F3BB60BB68DB43FA681340FB60C8
:102AB0007978FB78A3F10A0213465B00134401FA0C
:102AC00003F3BB60FA68BB681343FB607B68FA687A
:102AD000DA601EE07B681B69FB60FA7813465B00D6
:102AE0001344072202FA03F3BB60BB68DB43FA68B6
:102AF0001340FB607978FA7813465B00134401FABF
:102B000003F3BB60FA68BB681343FB607B68FA6839
:102B10001A61BB78062B21D87B685B6BFB60BB78A6
:102B20005A1E13469B0013441F2202FA03F3BB6094
:102B3000BB68DB43FA681340FB60F978BB785A1E28
:102B400013469B00134401FA03F3BB60FA68BB68A9
:102B50001343FB607B68FA685A6347E0BB780C2B31
:102B600021D87B681B6BFB60BB78DA1F13469B0088
:102B700013441F2202FA03F3BB60BB68DB43FA680D
:102B80001340FB60F978BB78DA1F13469B001344AF
:102B900001FA03F3BB60FA68BB681343FB607B6810
:102BA000FA681A6322E07B68DB6AFB60BB78A3F1FA
:102BB0000D0213469B0013441F2202FA03F3BB606D
:102BC000BB68DB43FA681340FB60F978BB78A3F17C
:102BD0000D0213469B00134401FA03F3BB60FA682D
:102BE000BB681343FB607B68FA68DA621437BD4642
:102BF0005DF8047B704700BF80B483B000AF78609D
:102C00007B68DB6C9BB218460C37BD465DF8047BD5
:102C1000704700BF80B485B000AF78600B46FB7092
:102C20000023FB737B681A68FB781340002B02D0EB
:102C30000123FB7301E00023FB73FB7B1846143771
:102C4000BD465DF8047B704780B483B000AF034697
:102C5000FB71084B97F907205209F97901F01F0120
:102C6000012000FA01F143F822100C37BD465DF84F
:102C7000047B704700E100E080B586B000AF44F20D
:102C800005000121FFF7CAFC4FF40073BB8003234A
:102C9000BB711823FB713B1D16481946FEF73AFD20
:102CA0004FF48063BB800323BB710423FB713B1D86
:102CB00010481946FEF72EFD0F48012100F0D8F804
:102CC0004FF49643BB600023BB810023FB810023AC
:102CD0003B820C237B820023BB8207F1080306485A
:102CE000194600F00BF82520FFF7AEFF1837BD4658
:102CF00080BD00BF000801400038014080B58CB0A5
:102D000000AF786039600023FB620023BB620023C0
:102D10007B6200233B620023FB617B68FB617B6875
:102D20001B8A9BB2FB62FA6A4CF6FF731340FB628C
:102D30003B68DB88FA6A1343FB62FB6A9AB27B68E2
:102D40001A827B689B899BB2FB62FA6A4EF6F31388
:102D50001340FB623B689A883B681B8913439AB215
:102D60003B685B8913439BB2FA6A1343FB62FB6ABD
:102D70009AB27B689A817B689B8A9BB2FB62FA6AF3
:102D80004FF6FF431340FB623B689B89FA6A13438B
:102D9000FB62FB6A9AB27B689A8207F108031846C5
:102DA000FFF76CFBFA69304B9A4202D17B69BB6238
:102DB00001E03B69BB627B689B899BB29BB21BB203
:102DC000002B0CDABA6A13469B0013449A001A448B
:102DD0003B681B685B00B2FBF3F37B620BE0BA6AF3
:102DE00013469B0013449A001A443B681B689B00DF
:102DF000B2FBF3F37B627A6A1C4BA3FB02135B0901
:102E00001B01FB62FB6A1B09642202FB03F37A6A63
:102E1000D31A3B627B689B899BB29BB21BB2002B8F
:102E20000DDA3B6ADB0003F13202104BA3FB021305
:102E30005B0903F00703FA6A1343FB620CE03B6A89
:102E40001B0103F13202094BA3FB02135B0903F0E0
:102E50000F03FA6A1343FB62FB6A9AB27B681A811A
:102E60003037BD4680BD00BF003801401F85EB51A3
:102E700080B483B000AF78600B46FB70FB78002B0A
:102E800008D07B689B899BB243F400539AB27B685D
:102E90009A8107E07B689B899BB223F400539AB226
:102EA0007B689A810C37BD465DF8047B704700BF94
:102EB000ABBE00F002B800207047002A00F001808D
:102EC00010600120704706980188044A914240F042
:102ED0000380043006907047FEE70000ABBE0000A0
:102EE00080B582B000AF04200121FFF797FB3B1DA6
:102EF0001846FEF7CBFC0123BB800423FB710323A0
:102F0000BB713B1D03481946FEF704FC0837BD465C
:102F100080BD00BF000C014080B584B000AFFFF75A
:102F2000DFFF00200021FEF7DFFC0123BB6001234F
:102F3000BB7300233B7310237B7307F10803184610
:102F4000FFF700FC4FF4407000F0F0FC06233B71EB
:102F500003237B710323BB710123FB713B1D1846C7
:102F600000F0F6FC1037BD4680BD00BF80B500AF55
:102F70000120FFF779FC034B1B8801339AB2014B08
:102F80001A8080BDA604002080B485B000AF7860B0
:102F90000023FB60094B1B68FB60FB6803F03803F0
:102FA000FB60FA687B681343FB60044BFA681A60A5
:102FB0001437BD465DF8047B704700BF0020024017
:102FC00080B586B000AF4FF401700121FFF726FBFA
:102FD00007F114031846FEF759FCFE23BB820023B9
:102FE000FB7507F114032F481946FEF793FB0023E6
:102FF0003B6000233B7101237B710023BB600023F6
:10300000FB6001233B743B4627481946FFF73AFC17
:103010002548012102220423FFF72AFD224802212C
:1030200003220423FFF724FD1F4803210422042365
:10303000FFF71EFD1C48042105220423FFF718FD9D
:103040001948052106220423FFF712FD1648052121
:1030500007220423FFF70CFD13480721082204234D
:10306000FFF706FD10480121FFF75EFC0E48002126
:10307000FFF776FC0C48FFF78FFC00BF0A48FFF70C
:103080009BFC0346002BF9D10748FFF7ADFC00BFBE
:103090000548FFF7B9FC0346002BF9D11837BD46A8
:1030A00080BD00BF000801400024014080B584B00D
:1030B00000AF0346FB71FB790F4819460122042338
:1030C000FFF7D6FC0C480121FFF7B6FC00BF0A4809
:1030D0000221FFF79FFD0346002BF8D00648FFF7BB
:1030E0008BFD0346FB6004480021FFF7A5FCFB684D
:1030F00018461037BD4680BD0024014080B483B01F
:1031000000AF78607B681A684FF6FE7313407A68E8
:1031100013607B6800221A607B6800225A607B681B
:1031200000229A607B680022DA607A68434B9A42F8
:1031300006D1434B424A526842F00F025A6077E090
:103140007A68404B9A4206D13D4B3D4A526842F064
:10315000F0025A606CE07A683B4B9A4206D1384BD9
:10316000374A526842F470625A6061E07A68374BBD
:103170009A4206D1324B324A526842F470425A6047
:1031800056E07A68324B9A4206D12D4B2C4A52684F
:1031900042F470225A604BE07A682E4B9A4206D174
:1031A000274B274A526842F470025A6040E07A681E
:1031B000294B9A4206D1224B214A526842F0706252
:1031C0005A6035E07A68254B9A4206D1244B244A4E
:1031D000526842F00F025A602AE07A68214B9A4204
:1031E00006D11F4B1E4A526842F0F0025A601FE09F
:1031F0007A681D4B9A4206D1194B194A526842F41B
:1032000070625A6014E07A68184B9A4206D1144BE7
:10321000134A526842F470425A6009E07A68144BCB
:103220009A4205D10E4B0E4A526842F470225A60FF
:103230000C37BD465DF8047B704700BF08000240B4
:10324000000002401C0002403000024044000240E6
:10325000580002406C000240800002400804024016
:10326000000402401C0402403004024044040240B6
:103270005804024080B485B000AF78603960002304
:10328000FB607B681B68FB60FB6823F4FF4323F053
:103290007003FB603B689A683B681B6A1A433B6893
:1032A0001B691A433B685B691A433B689B691A4375
:1032B0003B68DB691A433B685B6A1A433B689B6A5D
:1032C0001343FA681343FB607B68FA681A603B6833
:1032D000DA687B685A603B681A687B689A603B686A
:1032E0005A687B68DA601437BD465DF8047B704726
:1032F00080B483B000AF78600B46FB70FB78002B86
:1033000006D07B681B6843F001027B681A6006E008
:103310007B681A684FF6FE7313407A6813600C37A7
:10332000BD465DF8047B704780B485B000AF78601F
:103330000023FB730023BB607B6803F08053002BEA
:1033400003D00C4B1B68BB6002E00B4B1B68BB60DF
:10335000BA687B681340002B02D00123FB7301E0A5
:103360000023FB73FB7B18461437BD465DF8047BD6
:10337000704700BF000402400000024080B483B0E8
:1033800000AF78607B6803F08053002B03D0064BBE
:103390007A685A6002E0054B7A685A600C37BD467D
:1033A0005DF8047B704700BF00040240000002404B
:1033B00080B483B000AF03463960FB7197F90730E2
:1033C000002B0BDA0D49FB7903F00F03043B3A683D
:1033D000D2B21201D2B20B441A7609E0084997F929
:1033E00007303A68D2B21201D2B20B4483F80023FC
:1033F0000C37BD465DF8047B704700BF00ED00E070
:1034000000E100E080B582B000AF78607B68B3F186
:10341000807F01D3012311E00A4B7A6822F07F42BA
:10342000013A5A604FF0FF300F21FFF7C1FF054B03
:1034300000229A60034B07221A60002318460837BF
:10344000BD4680BD10E000E080B582B000AF78607E
:1034500039603B68DAB2094B1A70094B1A687B680D
:10346000B2FBF3F31846FFF7CDFF4FF0FF3000211A
:10347000FFF79EFF0837BD4680BD00BF5C040020FB
:103480000000002080B400AF0B4B1B6801334FF4E9
:103490007A7202FB03F2094B9968094B1B78B1FB66
:1034A000F3F3D21A074B1A60064B1B681846BD4649
:1034B0005DF8047B704700BF8404002010E000E04A
:1034C0005C0400208804002080B400AF034B1B681C
:1034D0001846BD465DF8047B704700BF8404002099
:1034E00080B500AF034B1B685A1C024B1A60FEF7F5
:1034F00071FB80BD8404002080B483B000AF03461C
:103500003960FB7197F90730002B0BDA0D49FB7915
:1035100003F00F03043B3A68D2B21201D2B20B445B
:103520001A7609E0084997F907303A68D2B21201D1
:10353000D2B20B4483F800230C37BD465DF8047B00
:10354000704700BF00ED00E000E100E080B489B00A
:1035500000AFF860B9607A60FB6803F00703FB61B5
:10356000FB69C3F10703042B28BF0423BB61FB697C
:103570000433062B02D9FB69033B00E000237B6187
:10358000BB69012202FA03F3013B1A46BB681A40E9
:103590007B699A407B69012101FA03F3013B1946DB
:1035A0007B680B40134318462437BD465DF8047B07
:1035B000704700BF80B500AF00F0B8F800F0D6F853
:1035C00000F0E8F800F0FCF880BD00BF80B582B0E4
:1035D00000AF7860494B00221A70494B00221A60F4
:1035E000484B00221A60484B00221A60474B0022C9
:1035F0001A60474B00221A80454B00225A80444BE8
:1036000000229A80FFF73EFF0246424B1A6000F00C
:10361000ADF8414B40225A6100BFFFF733FF02462D
:103620003C4B1B68D21A40F24B439A42F5D93A4BB5
:1036300040221A6100F086F8FFF746FF0246354B3C
:103640001A6000BFFFF740FF0246324B1B68D31AD7
:10365000B3F57A7FF6D331482D2100F0CDF82C4B0D
:103660001B889AB240F2E6339A421BD8284B1B883B
:103670009AB22B4B1A802A4B1B88184600F0FCFB91
:1036800002460B46104619464FF00002254B00F04B
:1036900083FD02460B461046194600F08DFE024699
:1036A0007B689A601A4B5B889AB240F2E6339A4282
:1036B0001BD8174B5B889AB21B4B1A801A4B1B887E
:1036C000184600F0D9FB02460B46104619464FF04B
:1036D0000002144B00F060FD02460B4610461946EE
:1036E00000F06AFE02467B685A60FFF7EDFE024674
:1036F000084B1A600837BD4680BD00BF9C040020FF
:103700008C040020900400209404002098040020E1
:1037100010050020A0040020000C0140200500201E
:103720001C050020000024405605002080B500AF95
:1037300008200121FEF772FF01200121FEF76EFF34
:1037400080BD00BF80B500AF064B40221A80054BFC
:103750000422DA70034B03229A7003480149FDF7F3
:10376000D9FF80BD18050020000C014080B500AFD6
:10377000064B40221A80054B1022DA70034B0322BD
:103780009A7003480149FDF7C5FF80BD1805002068
:10379000000C014080B582B000AF01200621FEF789
:1037A000A3F840233B6000233B7110237B7101236E
:1037B000BB713B461846FEF7C5FF0837BD4680BDC6
:1037C00080B582B000AF17233B7104237B710023C7
:1037D000BB710123FB713B1D184600F0B9F80420B2
:1037E0000F210022FFF7B2FE034617201946FFF70C
:1037F00083FE0837BD4680BD80B485B000AF7860D9
:103800000B46FB700F23BB7300237B730223FB73F8
:1038100032E0FB7B7A6813441B783B733B7B362B8F
:1038200009D87A7B797B194B33F8113099B2174B51
:1038300023F8121011E07A7B797B144B33F81130A6
:103840009BB299B2BB7B012000FA03F39BB20B43FE
:103850009BB299B20D4B23F81210BB7B002B03D007
:10386000BB7B013BBB7304E00F23BB737B7B01334A
:103870007B73FB7B0133FB73FA7BFB789A42C8D3E3
:103880001437BD465DF8047B704700BF100500206B
:1038900080B500AF4020FEF7C3FF0346002B36D0B3
:1038A0001B484021FEF706F80346002B0AD0FFF71D
:1038B000E9FD0246174B1A60FFF7E4FD0246164B7E
:1038C0001A6021E0FFF7DEFD0246144B1A60FFF795
:1038D000D9FD0246124B1A600E4B1B68002B13D009
:1038E000104B1B78DBB20E4A1268D1B2094A12683B
:1038F000D2B28A1AD1B20C4AD1540A4B1B78DBB22D
:103900000133DAB2074B1A704020FEF7ADFF80BDDD
:10391000000C01408C040020980400209404002036
:10392000900400209C0400202005002080B483B077
:1039300000AF7860054A7B6843F0BF6343F400330F
:10394000D3600C37BD465DF8047B704700ED00E0A6
:1039500080B487B000AF786000237B6100233B61B7
:103960000F23FB607B68DB78002B38D0264BDB68AD
:10397000DB4303F4E0631B0A7B617B69C3F104034F
:103980003B617B69FA6822FA03F3FB607B685B7832
:103990001A463B6902FA03F37B617B689B781A46FF
:1039A000FB6813407A6913437B617B691B017B6170
:1039B00016497B681B787A69D2B20B4483F80023DE
:1039C000124B7A6812785209D2B27968097801F0FC
:1039D0001F01012000FA01F143F822100EE00B4B09
:1039E0007A6812785209D2B27968097801F01F0119
:1039F000012000FA01F1203243F822101C37BD46A5
:103A00005DF8047B704700BF00ED00E000E100E0DE
:103A100080B58AB000AF786039600023FB84002352
:103A20007B840423BB84574BFB617B689B88FB84AE
:103A3000FB8C23F03F03FB8407F108031846FEF7D5
:103A40001DFD3B69FB61FA694F4BA3FB02139B0C05
:103A50007B84FA8C7B8C1343FB847B68FA8C9A8082
:103A60007B681B889BB223F001039AB27B681A80A3
:103A70000023FB843B681A68444B9A4215D83B6884
:103A80001B685B00FA69B2FBF3F3BB84BB8C032BAE
:103A900001D80423BB84FA8CBB8C1343FB847B8C3E
:103AA00001339AB27B681A8440E03B68DA884BF6AF
:103AB000FF739A4209D13B681A6813465B001344AE
:103AC000FA69B2FBF3F3BB840EE03B681A68134655
:103AD0009B0013449A001344FA69B2FBF3F3BB84CE
:103AE000BB8C43F48043BB84BB8CC3F30B03002B20
:103AF00003D1BB8C43F00103BB84BA8CFB8C134312
:103B00009BB26FEA43436FEA5343FB847B8C4FF4D1
:103B1000967202FB03F31E4A82FB03129211DB171B
:103B2000D31A9BB201339AB27B681A847B68FA8CF1
:103B30009A837B681B889BB243F001039AB27B682F
:103B40001A807B681B88FB84FB8C23F4816323F041
:103B50000203FB843B689A883B685B8913439AB2F3
:103B6000FB8C1343FB847B68FA8C1A803B689A8930
:103B70003B681B8913439AB27B681A812837BD467C
:103B800080BD00BF00127A0083DE1B43A0860100C7
:103B9000D34D621080B483B000AF78600B46FB70E9
:103BA000FB78002B08D07B681B889BB243F4007322
:103BB0009AB27B681A8007E07B681B889BB223F46B
:103BC00000739AB27B681A800C37BD465DF8047B9F
:103BD000704700BF81F0004102E000BF83F0004366
:103BE00030B54FEA41044FEA430594EA050F08BF98
:103BF00090EA020F1FBF54EA000C55EA020C7FEA5C
:103C0000645C7FEA655C00F0E2804FEA5454D4EBD8
:103C10005555B8BF6D420CDD2C4480EA020281EAA2
:103C2000030382EA000083EA010180EA020281EADA
:103C30000303362D88BF30BD11F0004F4FEA01312C
:103C40004FF4801C4CEA113102D0404261EB41013B
:103C500013F0004F4FEA03334CEA133302D05242C1
:103C600063EB430394EA050F00F0A780A4F101047D
:103C7000D5F1200E0DDB02FA0EFC22FA05F28018B7
:103C800041F1000103FA0EF2801843FA05F359419D
:103C90000EE0A5F120050EF1200E012A03FA0EFC1C
:103CA00028BF4CF0020C43FA05F3C01851EBE37146
:103CB00001F0004507D54FF0000EDCF1000C7EEB63
:103CC00000006EEB0101B1F5801F1BD3B1F5001FA1
:103CD0000CD349085FEA30004FEA3C0C04F10104C0
:103CE0004FEA445212F5800F80F09A80BCF1004FE9
:103CF00008BF5FEA500C50F1000041EB045141EA6B
:103D0000050130BD5FEA4C0C404141EB010111F46B
:103D1000801FA4F10104E9D191F0000F04BF014616
:103D20000020B1FA81F308BF2033A3F10B03B3F1F4
:103D300020020CDA0C3208DD02F1140CC2F10C0284
:103D400001FA0CF021FA02F10CE002F11402D8BFE2
:103D5000C2F1200C01FA02F120FA0CFCDCBF41EAAE
:103D60000C019040E41AA2BF01EB0451294330BD7D
:103D70006FEA04041F3C1CDA0C340EDC04F114045A
:103D8000C4F1200220FA04F001FA02F340EA030031
:103D900021FA04F345EA030130BDC4F10C04C4F177
:103DA000200220FA02F001FA04F340EA0300294657
:103DB00030BD21FA04F0294630BD94F0000F83F4A1
:103DC000801306BF81F480110134013D4EE77FEA84
:103DD000645C18BF7FEA655C29D094EA050F08BFD0
:103DE00090EA020F05D054EA000C04BF19461046B1
:103DF00030BD91EA030F1EBF0021002030BD5FEAF5
:103E0000545C05D14000494128BF41F0004130BD1C
:103E100014F580043CBF01F5801130BD01F0004570
:103E200045F0FE4141F470014FF0000030BD7FEAE3
:103E3000645C1ABF194610467FEA655C1CBF0B46DE
:103E4000024650EA013406BF52EA033591EA030FF5
:103E500041F4002130BD00BF90F0000F04BF0021ED
:103E6000704730B54FF4806404F132044FF0000520
:103E70004FF0000150E700BF90F0000F04BF002199
:103E8000704730B54FF4806404F1320410F00045FF
:103E900048BF40424FF000013EE700BF42004FEAFA
:103EA000E2014FEA31014FEA02701FBF12F07F4377
:103EB00093F07F4F81F06051704792F0000F14BF74
:103EC00093F07F4F704730B54FF4607401F00045B8
:103ED00021F0004120E700BF50EA010208BF70470F
:103EE00030B54FF000050AE050EA010208BF704704
:103EF00030B511F0004502D5404261EB41014FF46D
:103F0000806404F132045FEA915C3FF4DCAE4FF070
:103F100003025FEADC0C18BF03325FEADC0C18BF57
:103F2000033202EBDC02C2F1200300FA03FC20FAA8
:103F300002F001FA03FE40EA0E0021FA02F11444F5
:103F4000C1E600BF70B54FF0FF0C4CF4E06C1CEA0A
:103F500011541DBF1CEA135594EA0C0F95EA0C0F7F
:103F600000F0DEF82C4481EA030621EA4C5123EAF2
:103F70004C5350EA013518BF52EA033541F4801121
:103F800043F4801338D0A0FB02CE4FF00005E1FBD4
:103F900002E506F00042E0FB03E54FF00006E1FB1E
:103FA00003569CF0000F18BF4EF0010EA4F1FF0461
:103FB000B6F5007F64F5407404D25FEA4E0E6D41A1
:103FC00046EB060642EAC62141EA55514FEAC520B2
:103FD00040EA5E504FEACE2EB4F1FD0C88BFBCF52E
:103FE000E06F1ED8BEF1004F08BF5FEA500E50F1DF
:103FF000000041EB045170BD06F0004646EA0101A5
:1040000040EA020081EA0301B4EB5C04C2BFD4EBD6
:104010000C0541EA045170BD41F480114FF0000ECF
:10402000013C00F3AB8014F1360FDEBF002001F03D
:10403000004170BDC4F10004203C35DA0C341BDCB7
:1040400004F11404C4F1200500FA05F320FA04F089
:1040500001FA05F240EA020001F0004221F00041BD
:1040600010EBD37021FA04F642EB06015EEA430E30
:1040700008BF20EAD37070BDC4F10C04C4F1200560
:1040800000FA04F320FA05F001FA04F240EA020013
:1040900001F0004110EBD37041F100015EEA430EE4
:1040A00008BF20EAD37070BDC4F1200500FA05F204
:1040B0004EEA020E20FA04F301FA05F243EA020383
:1040C00021FA04F001F0004121FA04F220EA020092
:1040D00000EBD3705EEA430E08BF20EAD37070BDD8
:1040E00094F0000F0FD101F00046400041EB0101B8
:1040F00011F4801F08BF013CF7D041EA060195F09A
:10410000000F18BF704703F00046520043EB030353
:1041100013F4801F08BF013DF7D043EA0603704740
:1041200094EA0C0F0CEA135518BF95EA0C0F0CD04B
:1041300050EA410618BF52EA4306D1D181EA030191
:1041400001F000414FF0000070BD50EA410606BF8B
:104150001046194652EA430619D094EA0C0F02D1D0
:1041600050EA013613D195EA0C0F05D152EA033615
:104170001CBF104619460AD181EA030101F0004133
:1041800041F0FE4141F470014FF0000070BD41F07C
:10419000FE4141F4780170BD70B54FF0FF0C4CF456
:1041A000E06C1CEA11541DBF1CEA135594EA0C0F75
:1041B00095EA0C0F00F0A7F8A4EB050481EA030EC2
:1041C00052EA03354FEA013100F088804FEA0333A9
:1041D0004FF0805545EA131343EA12634FEA022277
:1041E00045EA111545EA10654FEA00260EF0004138
:1041F0009D4208BF964244F1FD0404F5407402D28A
:104200005B084FEA3202B61A65EB03055B084FEA1A
:1042100032024FF480104FF4002CB6EB020E75EB17
:10422000030E22BFB61A754640EA0C005B084FEA3F
:104230003202B6EB020E75EB030E22BFB61A7546BC
:1042400040EA5C005B084FEA3202B6EB020E75EB07
:10425000030E22BFB61A754640EA9C005B084FEA7F
:104260003202B6EB020E75EB030E22BFB61A75468C
:1042700040EADC0055EA060E18D04FEA051545EA7B
:1042800016754FEA06164FEAC30343EA52734FEA24
:10429000C2025FEA1C1CC0D111F4801F0BD141EA9D
:1042A00000014FF000004FF0004CB6E711F4801F02
:1042B00004BF01430020B4F1FD0C88BFBCF5E06FE2
:1042C0003FF6AFAEB5EB030C04BFB6EB020C5FEAF2
:1042D000500C50F1000041EB045170BD0EF0004E47
:1042E0004EEA113114EB5C04C2BFD4EB0C0541EA79
:1042F000045170BD41F480114FF0000E013C90E676
:1043000045EA060E8DE60CEA135594EA0C0F08BF39
:1043100095EA0C0F3FF43BAF94EA0C0F0AD150EA38
:1043200001347FF434AF95EA0C0F7FF425AF1046CB
:1043300019462CE795EA0C0F06D152EA03353FF4F3
:10434000FDAE1046194622E750EA410618BF52EA70
:1043500043067FF4C5AE50EA41047FF40DAF52EA44
:1043600043057FF4EBAE12E74FEA410212F500126B
:1043700015D211D56FF47873B3EB625212D94FEAAC
:10438000C12343F0004343EA505311F0004F23FA96
:1043900002F018BF404270474FF00000704750EAEB
:1043A000013005D111F0004008BF6FF000407047A8
:1043B0004FF00000704700BF4FEA4102B2F1E04306
:1043C00024BFB3F5001CDCF1FE5C0DD901F0004CFC
:1043D0004FEAC0024CEA5070B2F1004F40EB83004C
:1043E00008BF20F00100704711F0804F21D113F178
:1043F0003872BCBF01F00040704741F480114FEAB1
:104400005252C2F11802C2F1200C10FA0CF320FA39
:1044100002F018BF40F001004FEAC1234FEAD32356
:1044200003FA0CFC40EA0C0023FA02F34FEA4303C0
:10443000CCE77FEA625307D150EA01331EBF4FF049
:10444000FE4040F44000704701F0004040F0FE4064
:1044500040F40000704700BF80F0004002E000BF61
:1044600081F0004142001FBF5FEA410392EA030F5F
:104470007FEA226C7FEA236C6AD04FEA1262D2EBA9
:104480001363C1BFD218414048404140B8BF5B42AE
:10449000192B88BF704710F0004F40F4000020F047
:1044A0007F4018BF404211F0004F41F4000121F05D
:1044B0007F4118BF494292EA030F3FD0A2F10102A7
:1044C00041FA03FC10EB0C00C3F1200301FA03F1E5
:1044D00000F0004302D5494260EB4000B0F5000F08
:1044E00013D3B0F1807F06D340084FEA310102F1C7
:1044F0000102FE2A51D2B1F1004F40EBC25008BF79
:1045000020F0010040EA03007047490040EB000042
:1045100010F4000FA2F10102EDD1B0FA80FCACF171
:10452000080CB2EB0C0200FA0CF0AABF00EBC25070
:1045300052421843BCBFD0401843704792F0000F5E
:1045400081F4000106BF80F400000132013BB5E7B1
:104550004FEA41037FEA226C18BF7FEA236C21D027
:1045600092EA030F04D092F0000F08BF084670478C
:1045700090EA010F1CBF0020704712F07F4F04D15A
:10458000400028BF40F00040704712F100723CBF6D
:1045900000F50000704700F0004343F0FE4040F497
:1045A000000070477FEA226216BF08467FEA236355
:1045B0000146420206BF5FEA412390EA010F40F440
:1045C000800070474FF0000304E000BF10F000438C
:1045D00048BF40425FEA000C08BF704743F0964373
:1045E00001464FF000001CE050EA010208BF70478E
:1045F0004FF000030AE000BF50EA010208BF704715
:1046000011F0004302D5404261EB41015FEA010C29
:1046100002BF84460146002043F0B64308BFA3F121
:104620008053A3F50003BCFA8CF2083AA3EBC25303
:1046300010DB01FA02FC634400FA02FCC2F1200222
:10464000BCF1004F20FA02F243EB020008BF20F059
:104650000100704702F1200201FA02FCC2F12002BF
:1046600050EA4C0021FA02F243EB020008BF20EAB4
:10467000DC7070474FF0FF0C1CEAD0521EBF1CEAE2
:10468000D15392EA0C0F93EA0C0F6FD01A4480EAD0
:10469000010C400218BF5FEA41211ED04FF00063B9
:1046A00043EA501043EA5111A0FB01310CF00040E5
:1046B000B1F5000F3EBF490041EAD3715B0040EA0B
:1046C000010062F17F02FD2A1DD8B3F1004F40EBDB
:1046D000C25008BF20F00100704790F0000F0CF0AE
:1046E000004C08BF49024CEA502040EA51207F3A72
:1046F000C2BFD2F1FF0340EAC250704740F400004D
:104700004FF00003013A5DDC12F1190FDCBF00F03D
:1047100000407047C2F10002410021FA02F1C2F1EB
:10472000200200FA02FC5FEA310040F1000053EA87
:104730004C0308BF20EADC70704792F0000F00F0D5
:10474000004C02BF400010F4000F013AF9D040EADB
:104750000C0093F0000F01F0004C02BF490011F46F
:10476000000F013BF9D041EA0C018FE70CEAD1536D
:1047700092EA0C0F18BF93EA0C0F0AD030F0004CED
:1047800018BF31F0004CD8D180EA010000F00040A1
:10479000704790F0000F17BF90F0004F084691F05F
:1047A000000F91F0004F14D092EA0C0F01D1420299
:1047B0000FD193EA0C0F03D14B0218BF084608D162
:1047C00080EA010000F0004040F0FE4040F40000AC
:1047D000704740F0FE4040F4400070474FF0FF0C3F
:1047E0001CEAD0521EBF1CEAD15392EA0C0F93EA86
:1047F0000C0F69D0A2EB030280EA010C49024FEAD8
:10480000402037D04FF0805343EA111143EA101390
:104810000CF000408B4238BF5B0042F17D024FF448
:10482000000C8B4224BF5B1A40EA0C00B3EB510F23
:1048300024BFA3EB510340EA5C00B3EB910F24BF0C
:10484000A3EB910340EA9C00B3EBD10F24BFA3EB91
:10485000D10340EADC001B0118BF5FEA1C1CE0D159
:10486000FD2A3FF650AF8B4240EBC25008BF20F00C
:10487000010070470CF0004C4CEA50207F32C2BF60
:10488000D2F1FF0340EAC250704740F400004FF0FD
:104890000003013A37E792F0000F00F0004C02BF2E
:1048A000400010F4000F013AF9D040EA0C0093F0F8
:1048B000000F01F0004C02BF490011F4000F013B52
:1048C000F9D041EA0C0195E70CEAD15392EA0C0FBA
:1048D00008D142027FF47DAF93EA0C0F7FF470AFF2
:1048E000084676E793EA0C0F04D14B023FF44CAF35
:1048F00008466EE730F0004C18BF31F0004CCAD1CA
:1049000030F000427FF45CAF31F000437FF43CAF05
:104910005FE700BF4FEA4002B2F1FE4F0FD34FF006
:104920009E03B3EB12620DD94FEA002343F000431C
:1049300010F0004F23FA02F018BF404270474FF0CA
:104940000000704712F1610F01D1420205D110F051
:10495000004008BF6FF0004070474FF00000704704
:10496000646574696B3A2025640A0D0054203D206B
:10497000256420430A0D000070203D20256420504E
:10498000610A0D00616C746974756465203D2025B1
:10499000640A0D0053656E736F7220697320707224
:1049A0006573656E740A0D0053656E736F722069CE
:1049B00073204E4F542070726573656E740A0D003B
:1049C0006B6570616E6767696C0A0D0025640A0D7E
:1049D00000000000737464696F2E633A20696E638F
:1049E0007265617365204D41585F535452494E477B
:0849F0005F53495A450A0D000E
:1049F80000A24A04000000000000000001020304B5
:104A080006070809AA0000000000000000000000D6
:104A1800010000000000000000000000000000008D
:104A2800000000000000000000000000000000007E
:104A3800000000000000000000000000000000006E
:104A4800000000000000000000000000000000005E
:104A5800000000000000000000000000000000004E
:104E38001800002000000000000000000102030428
:104E480001020304060708090204060848000000D6
:0400000508000000EF
:00000001FF
