:020000040800F2
:10000000A808002061120008C1120008832D000812
:10001000C1120008C1120008C1120008000000004F
:10002000000000000000000000000000C1120008F5
:10003000C112000800000000C1120008C11200082F
:10004000C1120008C1120008C1120008C112000844
:10005000C1120008C1120008292E0008C1120008B0
:10006000C1120008C1120008C1120008C112000824
:10007000C1120008C1120008C1120008C112000814
:10008000C1120008C1120008C1120008C112000804
:10009000C1120008C1120008C1120008C1120008F4
:1000A000C1120008C1120008C1120008C1120008E4
:1000B00081010008C1120008C1120008C112000825
:1000C000C1120008C1120008C1120008C1120008C4
:1000D000C1120008C1120008C1120008C1120008B4
:1000E000C1120008C1120008C1120008000000007F
:1000F0000000000000000000000000000000000000
:1001000000000000000000005FF808F180B485B036
:1001100000AF78600B467B800023FB730023BB811C
:1001200000237B817B681B8A9AB27B881340BB814A
:100130007B689B899AB27B8813407B81BB89002BAB
:1001400005D07B89002B02D00123FB7301E0002343
:10015000FB73FB7B18461437BD465DF8047B704784
:1001600080B483B000AF78600B467B807B88DB4334
:100170009AB27B681A820C37BD465DF8047B7047E3
:1001800080B584B000AF0023FB600023BB60002378
:100190007B604FF080400121FFF7B8FF0346002B42
:1001A00060D04FF080400121FFF7DAFF324B1B880F
:1001B0001A46324B1B88D31A002BB8BF5B42FB6038
:1001C000FB682F4A82FB03121211DB17D21A134667
:1001D0001B019B1A9B007B60786803F0D1FA0246F2
:1001E0000B461046194622A3D3E9002303F02EFB49
:1001F00002460B461046194603F03AFD0346BB6023
:100200001D4B1A881D4B1A801B4B1B881D48194615
:100210007A68BB6801F07AFC174B00221A801A4BEF
:100220001B780133DAB2184B1A70174B1B783C2B32
:100230000CD1164B1B780A2B08D0144B1B780133BA
:10024000DAB2124B1A70104B00221A700F4B1B7847
:10025000092B07D900F01CF80B4B00221A700B4B2E
:1002600000221A701037BD4680BD00BFAFF300807A
:100270000C0A83328D26973F52040020540400203C
:100280001F85EB51A03E00085604002050040020BA
:10029000B0B598B002AF0323BB83012002F048FE43
:1002A000034687F85730022002F042FE0346A7F8C3
:1002B0005430032002F03CFE0346A7F852300420DD
:1002C00002F036FE0346A7F85030104B1B78A7F813
:1002D0004E303B46184600F0F3FE0346A7F84C307C
:1002E00000F016F897F85700B7F85210B7F84E20FC
:1002F000B7F84C30B7F85050B7F854400095019417
:1003000002F056F95837BD46B0BD00BF5704002073
:1003100080B483B000AF00237B6002E07B680133D0
:100320007B607A682B4B9A42F8DD00237B6002E009
:100330007B6801337B607A68264B9A42F8DD0023A4
:100340007B6002E07B6801337B607A68214B9A42D4
:10035000F8DD00237B6002E07B6801337B607A6814
:100360001C4B9A42F8DD00237B6002E07B6801337E
:100370007B607A68174B9A42F8DD00237B6002E0CD
:100380007B6801337B607A68124B9A42F8DD002368
:100390007B6002E07B6801337B607A680D4B9A4298
:1003A000F8DD00237B6002E07B6801337B607A68C4
:1003B000084B9A42F8DD00237B6002E07B68013342
:1003C0007B607A68034B9A42F8DD0C37BD465DF8D6
:1003D000047B70479E86010080B586B000AFF86050
:1003E000B9607A60FB7000237B617B6900233B610D
:1003F000FB689B889BB243F480739AB2FB689A8037
:10040000FB78022B40F08C80F868B9687A68012389
:1004100000F000FDFB689B889BB243F480539AB2C6
:10042000FB689A80FB689B889BB243F400639AB296
:10043000FB689A804FF6FF733B61FB681B889BB299
:1004400043F480739AB2FB681A8006E03B695A1E37
:100450003A61002B01D1002363E2FB689B8A9BB2C7
:1004600003F00103002BF1D04FF6FF733B6197F8C7
:10047000203043F0010387F82030864B97F8202086
:100480001A70844B1B78DBB21A46FB681A8206E0AE
:100490003B695A1E3A61002B01D1002341E2FB68FF
:1004A0009B8A9BB203F00203002BF1D0FB681B8BED
:1004B0009BB27B61FA68784B9A4210D100BF4FF033
:1004C000007002F073FE0346002BF8D07348002141
:1004D00002F050FE4FF0007002F092FE0FE000BFFD
:1004E0004FF4003002F062FE0346002BF8D06C4857
:1004F000002102F03FFE4FF4003002F081FEFB6865
:100500001B889BB243F400739AB2FB681A8000BF49
:10051000FB681B889BB203F40073002BF8D1FFE14A
:10052000FB78002B40F0B4817B68012B70D14FF633
:10053000FF733B61FB681B889BB243F480739AB2E4
:10054000FB681A8006E03B695A1E3A61002B01D114
:100550000023E6E1FB689B8A9BB203F00103002BBA
:10056000F1D097F8203043F0010387F82030494B51
:1005700097F820201A70474B1B78DBB21A46FB68AD
:100580001A824FF6FF733B6106E03B695A1E3A61DF
:10059000002B01D10023C4E1FB689B8A9BB203F0CE
:1005A0000203002BF1D0FB681B889BB223F480630D
:1005B0009AB2FB681A8072B6FB681B8B9BB27B6198
:1005C000FB681B889BB243F400739AB2FB681A80E5
:1005D00062B600BFFB689B8A9BB203F04003002B0E
:1005E000F8D0FB681B8A9BB2DAB2BB681A7000BFF6
:1005F000FB681B889BB203F40073002BF8D1FB68E7
:100600001B889BB243F480639AB2FB681A8087E12F
:100610007B68022B40F09180FB681B889BB243F4FF
:1006200000639AB2FB681A804FF6FF733B61FB6868
:100630001B889BB243F480739AB2FB681A8006E071
:100640003B695A1E3A61002B01D1002369E1FB6826
:100650009B8A9BB203F00103002BF1D04FF6FF738E
:100660003B6197F8203043F0010387F82030094BB5
:1006700097F820201A70074B1B78DBB21A46FB68EC
:100680001A820FE03B695A1E3A61002B0AD10023FF
:1006900047E100BF84040020005400408000024075
:1006A00058000240FB689B8A9BB203F00203002BB8
:1006B000E8D072B6FB681B8B9BB27B61FB681B8822
:1006C0009BB223F480639AB2FB681A8062B600BFC3
:1006D000FB689B8A9BB203F00403002BF8D072B630
:1006E000F868012102F0DAFEFB681B8A9BB2DAB2DD
:1006F000BB681A7062B6BB680133BB60FB681B8ABB
:100700009BB2DAB2BB681A7000BFFB681B889BB251
:1007100003F40073002BF8D1FB681B889BB243F4F1
:1007200080639AB2FB681A80FB681B889BB223F433
:1007300000639AB2FB681A80F2E04FF6FF733B61E8
:10074000FB681B889BB243F480739AB2FB681A80E3
:1007500006E03B695A1E3A61002B01D10023E0E01C
:10076000FB689B8A9BB203F00103002BF1D04FF68C
:10077000FF733B6197F8203043F0010387F8203086
:100780006A4B97F820201A70684B1B78DBB21A4628
:10079000FB681A8206E03B695A1E3A61002B01D1C0
:1007A0000023BEE0FB689B8A9BB203F00203002B90
:1007B000F1D0FB681B8B9BB27B6155E07B68032B00
:1007C00013D000BFFB689B8A9BB203F00403002B8D
:1007D000F8D0FB681B8A9BB2DAB2BB681A70BB68A0
:1007E0000133BB607B68013B7B607B68032B3BD1A3
:1007F00000BFFB689B8A9BB203F00403002BF8D078
:10080000FB681B889BB223F480639AB2FB681A8052
:1008100072B6FB681B8A9BB2DAB2BB681A70BB68FF
:100820000133BB60FB681B889BB243F400739AB230
:10083000FB681A80FB681B8A9BB2DAB2BB681A702D
:1008400062B6BB680133BB6000BFFB689B8A9BB28A
:1008500003F04003002BF8D0FB681B8A9BB2DAB28E
:10086000BB681A7000237B607B68002BA6D100BF99
:10087000FB681B889BB203F40073002BF8D1FB6864
:100880001B889BB243F480639AB2FB681A8047E0EE
:10089000FB689B889BB243F400739AB2FB689A8012
:1008A000FB689B889BB243F480639AB2FB689A8092
:1008B0001F4B01221A6097F8203043F0010387F89C
:1008C00020301A4B97F820201A70FA68194B9A4278
:1008D00003D1194B7A681A6002E0184B7A681A60E3
:1008E000FB681B889BB243F480739AB2FB681A8042
:1008F00000BFFB681B889BB203F48073002BF8D108
:1009000000BFFB681B8B9BB203F00203002BF8D1E6
:10091000FB681B889BB243F480639AB2FB681A8021
:10092000012318461837BD4680BD00BF840400204F
:100930004C040020005400408C0400208804002057
:1009400080B586B000AFF860B9607A60FB700023B4
:100950007B617B6900233B61FB689B889BB243F40E
:1009600080739AB2FB689A80FB78022B40F08C80EF
:100970004FF6FF733B61F868B9687A68002300F0AE
:1009800049FAFB689B889BB243F400639AB2FB6808
:100990009A80FB681B889BB243F480739AB2FB6811
:1009A0001A8006E03B695A1E3A61002B01D10023F0
:1009B00028E1FB689B8A9BB203F00103002BF1D076
:1009C0004FF6FF733B6197F8203023F0010387F85F
:1009D00020308E4B97F820201A708C4B1B78DBB29E
:1009E0001A46FB681A8206E03B695A1E3A61002BE0
:1009F00001D1002306E1FB689B8A9BB203F002034E
:100A0000002BF1D0FB681B8B9BB27B61FA68804B9B
:100A10009A4210D100BF4FF4001002F0C7FB03460A
:100A2000002BF8D07B48002102F0A4FB4FF400100B
:100A300002F0E6FB0FE000BF4FF4005002F0B6FBFF
:100A40000346002BF8D07448002102F093FB4FF4CA
:100A5000005002F0D5FB00BFFB689B8A9BB203F0FD
:100A60000403002BF8D0FB681B889BB243F400738F
:100A70009AB2FB681A8000BFFB681B889BB203F424
:100A80000073002BF8D1BCE0FB78002B79D14FF636
:100A9000FF733B61FB681B889BB243F480739AB27F
:100AA000FB681A8006E03B695A1E3A61002B01D1AF
:100AB0000023A7E0FB689B8A9BB203F00103002B95
:100AC000F1D097F8203023F0010387F820304F4B06
:100AD00097F820201A704D4B1B78DBB21A46FB6842
:100AE0001A824FF6FF733B6106E03B695A1E3A617A
:100AF000002B01D1002385E0FB689B8A9BB203F0A9
:100B00000203002BF1D0FB681B8B9BB27B61BB689F
:100B10001B781A46FB681A82BB680133BB607B688E
:100B2000013B7B600FE000BFFB689B8A9BB203F038
:100B30000403002BF8D0BB681B781A46FB681A82A6
:100B4000BB680133BB607B685A1E7A60002BEAD118
:100B500000BFFB689B8A9BB203F00403002BF8D014
:100B6000FB681B889BB243F400739AB2FB681A803F
:100B700000BFFB681B889BB203F40073002BF8D105
:100B80003FE0FB689B889BB243F400739AB2FB681A
:100B90009A80FB689B889BB243F480639AB2FB689F
:100BA0009A801E4B00221A6097F8203023F0010330
:100BB00087F82030154B97F820201A70FA68144BEC
:100BC0009A4203D1164B7A681A6002E0154B7A6894
:100BD0001A60FB681B889BB243F480739AB2FB686F
:100BE0001A8000BFFB681B889BB203F48073002B44
:100BF000F8D100BFFB681B8B9BB203F00203002BF4
:100C0000F8D1012318461837BD4680BD8404002062
:100C1000005400406C000240440002404C0400209C
:100C20008C0400208804002080B588B000AF786074
:100C30000820012101F0A8F80120012101F086F827
:100C40007A68694B9A4223D14FF40010012101F0D8
:100C5000B9F84023BB830323BB771C23FB7707F141
:100C60001C036248194600F02FFB8023BB8307F169
:100C70001C035E48194600F027FB4FF400100121C9
:100C800001F0BEF84FF40010002101F0B9F824E0A3
:100C90004FF48000012101F095F84FF48063BB838D
:100CA0000323BB771C23FB7707F11C034F4819462E
:100CB00000F00AFB4FF40063BB8307F11C034B48B1
:100CC000194600F001FB4FF48000012101F098F873
:100CD0004FF48000002101F093F800233B824BF693
:100CE000FF737B822823BB824FF48063FB824FF427
:100CF00080433B833E4BFB6007F10C033A481946A7
:100D000002F00AFB3023BB8207F10C033948194675
:100D100002F002FB7A68344B9A4231D1364802F035
:100D20002FF9364B364A1A60344B00225A60334B47
:100D300010229A60314B4FF6FF72DA602F4B00227F
:100D40001A612E4B80225A612C4B00229A612B4B48
:100D50000022DA61294B00221A62284B4FF44052DC
:100D60005A62264B00229A622348244902F0C4F9B1
:100D7000244802F005F92348204902F0BDF930E08B
:100D8000214802F0FDF81D4B204A1A601B4B00223F
:100D90005A601A4B10229A60184B4FF6FF72DA60B5
:100DA000164B00221A61154B80225A61134B002208
:100DB0009A61124B0022DA61104B00221A620F4B2B
:100DC0004FF440525A620D4B00229A620E480B4972
:100DD00002F092F90E4802F0D3F80D48074902F0EC
:100DE0008BF92037BD4680BD00540040000C014007
:100DF000A0860100005800406C000240580400200A
:100E0000105400408000024044000240105800404E
:100E10005800024080B584B000AFF860B9607A60D5
:100E20003B603B68002B2CD1BA682D4B5A602C4B91
:100E300010229A602A4B7A68DA60FA68294B9A4243
:100E40000FD1274B284A1A602848002102F092F956
:100E50002648234902F050F92448012102F08AF97A
:100E60003BE01F4B224A1A602248002102F082F91F
:100E700020481B4902F040F91E48012102F07AF98E
:100E80002BE0BA68164B5A60154B00229A60144B3F
:100E90007A68DA60FA68134B9A420FD1104B124A03
:100EA0001A601548002102F065F913480C4902F058
:100EB00023F91148012102F05DF90EE0084B0C4ABC
:100EC0001A600E48002102F055F90C48044902F05E
:100ED00013F90A48012102F04DF91037BD4680BDD3
:100EE0005804002000540040105400406C000240A0
:100EF0001058004044000240800002405800024068
:100F000080B500AF154B154A126842F001021A6015
:100F1000124A124B5968124B0B4053600F4A0F4B49
:100F20001B6823F0847323F4803313600B4B0B4A4C
:100F3000126822F480221A60084B084A526822F490
:100F4000FE025A60054B4FF41F029A6000F00CF845
:100F5000044B4FF000629A6080BD00BF0010024059
:100F60000000FFF800ED00E080B500AF00F002F8EF
:100F700080BD00BF80B483B000AF00237B6000233E
:100F80003B603A4B394A126842F480321A60374B60
:100F90001B6803F400333B607B6801337B603B6874
:100FA000002B03D17B68B3F5A06FF0D12F4B1B68EA
:100FB00003F40033002B02D001233B6001E0002347
:100FC0003B603B68012B4BD1294B294A126842F008
:100FD00010021A60264B264A126822F003021A6099
:100FE000234B234A126842F002021A601F4B1F4A29
:100FF00052685A601D4B1D4A52685A601B4B1B4A6F
:10100000526842F480625A60184B184A526822F4BF
:101010007C125A60154B154A526842F4E8125A6025
:10102000124B124A126842F080721A6000BF0F4BD6
:101030001B6803F00073002BF9D00C4B0B4A52686D
:1010400022F003025A60094B084A526842F0020239
:101050005A6000BF054B5B6803F00C03082BF9D105
:101060000C37BD465DF8047B704700BF001002409E
:101070000020024080B582B002AF0E4BD0221A7021
:10108000EE2300930C480B4901220023FFF758FC84
:10109000EE2300930848094901220023FFF79CF939
:1010A000064B1B78552B01D1012300E00023184685
:1010B000BD4680BD00000020005400409004002088
:1010C00080B582B000AF78607B68DB6AA3F57A6296
:1010D0007B685A637B68DB891BB27A68526B7968DC
:1010E000496B01FB02F202FB03F3DA157B685A62DB
:1010F0007B685B881BB27A68526B02FB03F3DA12DF
:101100007B689A627B685A6A7B689B6A1A447B6830
:101110009A637B681B881BB29A007B689B6B1A449E
:101120007B689B8B1BB202FA03F302339A107B6835
:10113000DA637B689B881BB27A68526B02FB03F30D
:101140005A137B685A627B685B6B7A68526B02FB4E
:1011500003F31A137B689A627B689B6A7A689289A8
:1011600012B202FB03F31A147B689A627B685A6A14
:101170007B689B6A134402339A107B689A637B688E
:10118000DB887A68926B02F5004202FB03F3DA0B0C
:101190007B681A647B681B6A1A467B68DB6BD31A10
:1011A0007A68928B12B24CF2503141FA02F202FB91
:1011B00003F27B685A647B685B6C002B0ADB7B68FC
:1011C0005B6C5A007B681B6CB2FBF3F31A467B68BE
:1011D0009A6409E07B685A6C7B681B6CB2FBF3F382
:1011E0005B001A467B689A647B689B6C1A127B686A
:1011F0005A627B685B6A7A68526A02FB03F27B6818
:101200005A627B685B6A40F6DE3202FB03F31A1413
:101210007B685A627B689B6C0F4A02FB03F31A14CB
:101220007B689A627B689A6C7B68596A7B689B6A68
:101230000B4403F6CF631B111A447B689A647B68E6
:101240009B6C0648194600F061FC7B689B6C184655
:101250000837BD4680BD00BF43E3FFFFD03E000816
:1012600080B582B000AF114B7B60114B3B6007E053
:101270003B681A1D3A607A68111D796012681A601D
:101280003A680C4B9A42F3D30B480C494FF00002DA
:101290008842B8BF40F8042BFFF6FAAFFFF730FEE4
:1012A00000F020F90837BD4680BD00BFE0410008CE
:1012B000000000204C0400204C040020A804002062
:1012C00080B400AFFEE700BF80B489B000AF7860A3
:1012D00039600023FB6100233B610023BB610023D5
:1012E000FB6000237B610023BB603B68DB7803F07D
:1012F0000F03FB613B68DB7803F01003002B04D085
:101300003B689B78FA691343FB613B681B88DBB23F
:10131000002B44D07B681B687B610023BB6138E0F5
:10132000BB69012202FA03F3FB603B681B881A4683
:10133000FB6813403B613A69FB689A4226D1BB695E
:101340009B00FB60FB680F2202FA03F3BB60BB68E3
:10135000DB437A6913407B61FB68FA6902FA03F3A5
:101360007A6913437B613B68DB78282B05D1BB6925
:1013700001229A407B685A6108E03B68DB78482B81
:1013800004D1BB6901229A407B681A61BB690133B1
:10139000BB61BB69072BC3D97B687A691A603B685C
:1013A0001B88FF2B46D97B685B687B610023BB6190
:1013B0003AE0BB690833012202FA03F3FB603B68A1
:1013C0001B881A46FB6813403B613A69FB689A42E6
:1013D00027D1BB699B00FB60FB680F2202FA03F375
:1013E000BB60BB68DB437A6913407B61FB68FA69C9
:1013F00002FA03F37A6913437B613B68DB78282B9D
:1014000005D1BB69083301229A407B685A613B6869
:10141000DB78482B05D1BB69083301229A407B68F1
:101420001A61BB690133BB61BB69072BC1D97B68FA
:101430007A695A602437BD465DF8047B704700BF67
:1014400080B483B000AF78607B684FF6FF721A807B
:101450007B6802229A707B680422DA700C37BD46E2
:101460005DF8047B704700BF90B484B000AF0246C3
:101470000B46FA71BB710023FB60BB7903F00303D9
:101480009B000F2202FA03F3FB60154BBA79920816
:10149000D2B21349B8798008C0B2023051F82000A6
:1014A000F968C9430140023243F822100C4BBA7963
:1014B0009208D2B20A49B8798008C0B2023051F815
:1014C0002000FC79B97901F00301890004FA01F1E7
:1014D0000143023243F822101037BD4690BC7047DA
:1014E0000000014080B500AFFFF70AFD01F0AAFC43
:1014F0000948FFF799FB01F06DFC00F015FFFFF7BD
:10150000B9FD0346002B03D0044800F0FFFA02E0C7
:10151000034800F0FBFAFEE700540040EC3E0008F0
:10152000003F000880B483B000AF0346FB710C3766
:10153000BD465DF8047B704780B483B000AF78602F
:101540000B46FB707B68FA781A70012318460C373B
:10155000BD465DF8047B704780B485B000AF78600D
:1015600039600023FB600AE07B685A1C7A603A68A5
:10157000511C396012781A70FB680133FB603B68BC
:101580001B78002BF0D1FB6818461437BD465DF878
:10159000047B704780B586B000AFF8607A603B602E
:1015A0000B46FB7200237B617B68013B7B603B68E1
:1015B000092B10D93A681E4BA3FB0213DB08FA7AF9
:1015C000F86811467A68FFF7E5FF78617B69FA6889
:1015D0001344FB6011E00DE0FB7AF8681946FFF751
:1015E000ABFFFB680133FB607B6901337B617B6888
:1015F000013B7B607B68002BEEDC39680C4BA3FB66
:101600000123DA0813469B0013445B00CA1AD3B2C5
:101610003033DBB2F8681946FFF78EFF03467A696C
:1016200013447B617B6918461837BD4680BD00BFF7
:10163000CDCCCCCC80B586B000AFF8607A603B6092
:101640000B46FB7200237B613B68002B03DA3B688F
:101650005B423B6101E03B683B617B68013B7B6037
:101660003B69092B21D93B68002B0DDA3A692F4BD6
:10167000A3FB0213DB085B42FA7AF86811467A682A
:10168000FFF7D8FF78610BE03A69284BA3FB021300
:10169000DB08FA7AF86811467A68FFF7CBFF7861C1
:1016A0007B69FA681344FB6026E03B68002B03DA91
:1016B0007B68013B7B600EE00DE0FB7AF868194621
:1016C000FFF73AFFFB680133FB607B6901337B6105
:1016D0007B68013B7B607B68002BEEDC3B68002B6A
:1016E0000ADAF8682D21FFF727FF03467A691344C9
:1016F0007B61FB680133FB6039690C4BA3FB012361
:10170000DA0813469B0013445B00CA1AD3B2303385
:10171000DBB2F8681946FFF70FFF03467A691344F6
:101720007B617B6918461837BD4680BDCDCCCCCCDB
:1017300080B588B002AFF8607A600A46FA72BB7270
:1017400000237B617B68013B7B603B6A1B09002BAC
:1017500012D03B6A1909FA7ABB7A0091F8681146EF
:101760007A68FFF7E5FF03467A6913447B617B697A
:10177000FA681344FB6011E00DE0FB7AF868194643
:10178000FFF7DAFEFB680133FB607B6901337B61A5
:101790007B68013B7B607B68002BEEDC3B6A03F0DF
:1017A0000F03092B0BD83B6ADBB203F00F03DBB24C
:1017B0003033DBB2F8681946FFF7BEFE19E0BB7A9A
:1017C000002B0BD03B6ADBB203F00F03DBB23733E5
:1017D000DBB2F8681946FFF7AFFE0AE03B6ADBB2FE
:1017E00003F00F03DBB25733DBB2F8681946FFF79B
:1017F000A3FE7B6901337B617B6918461837BD46C0
:1018000080BD00BF80B58AB002AFF860B9607A6071
:101810003B600023BB6100237B61FB68002B03D08E
:10182000FB6800221A70F8E0F7E07B681B78252B34
:101830000BD0FB685A1CFA607A68511C79601278E8
:101840001A707B6901337B61E7E07B6801331B78A9
:10185000252B0BD1FB685A1CFA6025221A707B6875
:1018600002337B607B6901337B61D6E02023FB7709
:101870000023BB777B6801337B607B681B78302B50
:1018800005D13023FB777B6801337B600FE00EE0EE
:10189000BB7F1A46920013445B00DAB27B681B7868
:1018A0001344DBB2303BBB777B6801337B607B68E2
:1018B0001B782F2B03D97B681B78392BE8D9BA7F8B
:1018C0007B6913441A46BB689A4205D9BB68DAB2F1
:1018D0007B69DBB2D31ABB777B681B78583B202B24
:1018E00000F28D8001A252F823F000BFB919000860
:1018F000FF190008FF190008FF190008FF19000868
:10190000FF190008FF190008FF190008FF19000857
:10191000FF190008FF190008E919000871190008EB
:10192000FF190008FF190008FF190008FF19000837
:1019300071190008FF190008FF190008FF190008B5
:10194000FF190008FF190008FF190008FF19000817
:10195000FF190008FF190008D5190008FF19000831
:1019600087190008FF190008FF1900089D190008D1
:10197000BA7F3B68191D39601B68F97FF868FFF76B
:1019800059FEB8613EE0BA7F3B68191D39601B689B
:10199000F97FF868FFF7FEFDB86133E0BA7F3B6876
:1019A000191D39601968FB7F0091F86819460023FA
:1019B000FFF7BEFEB86125E0BA7F3B68191D3960AC
:1019C0001968FB7F0091F86819460123FFF7B0FE04
:1019D000B86117E03B681A1D3A601B68F868194641
:1019E000FFF7BAFDB8610DE03B681A1D3A601B684D
:1019F000DBB2F8681946FFF79FFDB86102E04FF0CF
:101A0000FF3325E07B6801337B60BB69FA681344D0
:101A1000FB607A69BB6913447B617B681B78002B90
:101A200004D07A69BB689A42FFF4FFAE7A69BB685A
:101A30009A4203D2FB6800221A7008E0FB68013B5F
:101A4000FB60FB6800221A707B69013B7B617B694C
:101A500018462037BD4680BD80B584B000AFF86021
:101A6000B9607A60F8686421BA687B68FFF7CAFEDB
:101A7000034618461037BD4680BD00BFB0B5A6B0BE
:101A800000AFF860B9607A60144B07F110041D468E
:101A90000FCD0FC40FCD0FC42B68236007F13403A3
:101AA0001846B9687A68FFF7D7FF0346632B09DD4C
:101AB0000B4B1B68DB6807F110021046194600F05B
:101AC0006FF8FEE707F134031846F96800F068F88C
:101AD000034618469837BD46B0BD00BF183F000802
:101AE0003004002080B582B000AF78603960064BCA
:101AF0001B689B68184679683A68FFF7BFFF034682
:101B000018460837BD4680BD300400200FB480B5AC
:101B100082B000AF07F114033B6038693968FFF702
:101B2000E1FF78607B6818460837BD46BDE8804015
:101B300004B070470EB480B585B000AF786007F18F
:101B40002003BB607868F969BA68FFF785FFF86021
:101B5000FB6818461437BD46BDE8804003B07047A7
:101B600080B582B000AF786039600C4B1B689A6812
:101B70003B689A4205D0094B1B68DA683B689A4279
:101B800006D17B68DBB21846FFF7CCFC7B6801E02E
:101B90004FF0FF3318460837BD4680BD30040020A3
:101BA00080B584B000AF786039600023FB6012E03C
:101BB0007B681B7818463968FFF7D2FF0346B3F1FC
:101BC000FF3F02D14FF0FF330AE0FB680133FB60B7
:101BD0007B6801337B607B681B78002BE8D1FB6856
:101BE00018461037BD4680BD80B487B000AF78601E
:101BF00000237B6100233B610023FB600023BB606B
:101C00004D4B5B6803F00C037B617B69042B07D0B1
:101C1000082B09D0002B34D17B68484A1A6034E085
:101C20007B68464A1A6030E0434B5B6803F47013EC
:101C30003B61414B5B6803F48033FB603B699B0C69
:101C400002333B61FB68002B06D13B693C4A02FB37
:101C500003F27B681A6013E0374B5B6803F40033D0
:101C6000002B06D03B69364A02FB03F27B681A6000
:101C700006E03B69314A02FB03F27B681A6004E02C
:101C800003E07B682D4A1A6000BF2B4B5B6803F0B2
:101C9000F0037B617B691B097B612A4A7B691344E2
:101CA0001B78DBB2BB607B681A68BB68DA407B6874
:101CB0005A60214B5B6803F4E0637B617B691B0A1C
:101CC0007B61204A7B6913441B78DBB2BB607B6875
:101CD0005A68BB68DA407B689A60174B5B6803F40C
:101CE00060537B617B69DB0A7B61164A7B69134425
:101CF0001B78DBB2BB607B685A68BB68DA407B68E4
:101D0000DA600D4B5B6803F440437B617B699B0B9E
:101D10007B610D4A7B6913441B78DBB2BB607B6837
:101D2000DA68BB68B2FBF3F27B681A611C37BD4608
:101D30005DF8047B704700BF0010024000127A007B
:101D400000093D00380400204804002080B483B01E
:101D500000AF78600B46FB70FB78002B06D0094B78
:101D6000084A51697A680A435A6106E0054B054AF8
:101D700051697A68D2430A405A610C37BD465DF812
:101D8000047B70470010024080B483B000AF7860DD
:101D90000B46FB70FB78002B06D0094B084A916973
:101DA0007A680A439A6106E0054B054A91697A68A8
:101DB000D2430A409A610C37BD465DF8047B7047F8
:101DC0000010024080B483B000AF78600B46FB7017
:101DD000FB78002B06D0094B084AD1697A680A4380
:101DE000DA6106E0054B054AD1697A68D2430A40B8
:101DF000DA610C37BD465DF8047B70470010024085
:101E000080B483B000AF78600B46FB70FB78002B8A
:101E100006D0094B084A11697A680A431A6106E03C
:101E2000054B054A11697A68D2430A401A610C379A
:101E3000BD465DF8047B70470010024080B485B059
:101E400000AF78600023FB60324BFB607B689B79BE
:101E5000002B4DD02F4B2F4A11687A681268D2435D
:101E60000A401A602B4B2B4A51687A681268D24399
:101E70000A405A607B681B79FA681344FB60FB6870
:101E8000FA6811687A6812680A431A60214B214A7D
:101E900091687A681268D2430A409A601D4B1D4AC5
:101EA000D1687A681268D2430A40DA607B685B794D
:101EB000102B0ED1174B174A91687A6812680A43A3
:101EC0009A60144B134AD1687A6812680A43DA6040
:101ED0001BE0104BFB607B685B79FA681344FB6086
:101EE000FB68FA6811687A6812680A431A600CE0A5
:101EF0007B681B79FA681344FB60FB68FA68116819
:101F00007A681268D2430A401A601437BD465DF8F9
:101F1000047B70470004014080B483B000AF786058
:101F2000034B7A685A610C37BD465DF8047B7047F5
:101F30000004014080B485B000AF786039600023B0
:101F4000FB600023FB727B685B68FB60FB6823F42B
:101F5000702323F48073FB603B681A683B681B792D
:101F60001B021343FA681343FB607B68FA685A60EC
:101F70007B689B68FB60FA68164B1340FB603B680C
:101F8000DA683B689B681A433B685B795B001343E4
:101F9000FA681343FB607B68FA689A607B68DB6AC7
:101FA000FB60FB6823F47003FB603B681B7C013B18
:101FB000DAB2FB7A1343FB72FB7A1B05FA68134310
:101FC000FB607B68FA68DA621437BD465DF8047B13
:101FD000704700BFFDF7F1FF80B483B000AF7860B9
:101FE0000B46FB70FB78002B06D07B689B6843F0A8
:101FF00001027B689A6005E07B689B6823F0010220
:102000007B689A600C37BD465DF8047B704700BF63
:1020100080B483B000AF78600B46FB70FB78002B78
:1020200006D07B689B6843F480727B689A6005E009
:102030007B689B6823F480727B689A600C37BD468E
:102040005DF8047B704700BF80B483B000AF786058
:102050007B689B6843F008027B689A600C37BD463A
:102060005DF8047B704700BF80B485B000AF786036
:102070000023FB737B689B6803F00803002B02D0EE
:102080000123FB7301E00023FB73FB7B184614372D
:10209000BD465DF8047B704780B483B000AF7860C4
:1020A0007B689B6843F004027B689A600C37BD46EE
:1020B0005DF8047B704700BF80B485B000AF7860E6
:1020C0000023FB737B689B6803F00403002B02D0A2
:1020D0000123FB7301E00023FB73FB7B18461437DD
:1020E000BD465DF8047B704780B483B000AF786074
:1020F0000B46FB70FB78002B06D07B689B6843F493
:10210000A0027B689A6005E07B689B6823F4A002CC
:102110007B689A600C37BD465DF8047B704700BF52
:1021200080B485B000AF7860F970BA707B7000231E
:10213000FB600023BB60FB78092B23D97B68DB683D
:10214000FB60FB78A3F10A0213465B0013440722ED
:1021500002FA03F3BB60BB68DB43FA681340FB6021
:102160007978FB78A3F10A0213465B00134401FA65
:1021700003F3BB60FA68BB681343FB607B68FA68D3
:10218000DA601EE07B681B69FB60FA7813465B002F
:102190001344072202FA03F3BB60BB68DB43FA680F
:1021A0001340FB607978FA7813465B00134401FA18
:1021B00003F3BB60FA68BB681343FB607B68FA6893
:1021C0001A61BB78062B21D87B685B6BFB60BB7800
:1021D0005A1E13469B0013441F2202FA03F3BB60EE
:1021E000BB68DB43FA681340FB60F978BB785A1E82
:1021F00013469B00134401FA03F3BB60FA68BB6803
:102200001343FB607B68FA685A6347E0BB780C2B8A
:1022100021D87B681B6BFB60BB78DA1F13469B00E1
:1022200013441F2202FA03F3BB60BB68DB43FA6866
:102230001340FB60F978BB78DA1F13469B00134408
:1022400001FA03F3BB60FA68BB681343FB607B6869
:10225000FA681A6322E07B68DB6AFB60BB78A3F153
:102260000D0213469B0013441F2202FA03F3BB60C6
:10227000BB68DB43FA681340FB60F978BB78A3F1D5
:102280000D0213469B00134401FA03F3BB60FA6886
:10229000BB681343FB607B68FA68DA621437BD469B
:1022A0005DF8047B704700BF80B483B000AF7860F6
:1022B0007B68DB6C9BB218460C37BD465DF8047B2F
:1022C000704700BF80B485B000AF78600B46FB70EC
:1022D0000023FB737B681A68FB781340002B02D045
:1022E0000123FB7301E00023FB73FB7B18461437CB
:1022F000BD465DF8047B704780B483B000AF0346F1
:10230000FB71084B97F907205209F97901F01F0179
:10231000012000FA01F143F822100C37BD465DF8A8
:10232000047B704700E100E080B586B000AF44F266
:1023300005000121FFF728FD4FF40073BB80032344
:10234000BB711823FB713B1D16481946FEF7BCFFF5
:102350004FF48063BB800323BB710423FB713B1DDF
:1023600010481946FEF7B0FF0F48012100F0DEFCCF
:102370004FF49643BB600023BB810023FB81002305
:102380003B820C237B820023BB8207F108030648B3
:10239000194600F011FC2520FFF7AEFF1837BD46A7
:1023A00080BD00BF000801400038014080B483B008
:1023B00000AF00237B6000237B6002E07B68013379
:1023C0007B607A68444B9A42F8DD00237B6002E030
:1023D0007B6801337B607A683F4B9A42F8DD0023CB
:1023E0007B6002E07B6801337B607A683A4B9A42FB
:1023F000F8DD00237B6002E07B6801337B607A6854
:10240000354B9A42F8DD00237B6002E07B680133A4
:102410007B607A68304B9A42F8DD00237B6002E0F3
:102420007B6801337B607A682B4B9A42F8DD00238E
:102430007B6002E07B6801337B607A68264B9A42BE
:10244000F8DD00237B6002E07B6801337B607A6803
:10245000214B9A42F8DD00237B6002E07B68013368
:102460007B607A681D4B9A42F8DD00237B6002E0B6
:102470007B6801337B607A68184B9A42F8DD002351
:102480007B6002E07B6801337B607A68134B9A4281
:10249000F8DD00237B6002E07B6801337B607A68B3
:1024A0000E4B9A42F8DD00237B6002E07B6801332B
:1024B0007B607A68094B9A42F8DD00237B6002E07A
:1024C0007B6801337B607A68044B9A42F8DD0C37F5
:1024D000BD465DF8047B7047DF9304001FA1070031
:1024E00080B485B000AF78600023BB6052E0002369
:1024F000FB6002E0FB680133FB60FA682A4B9A42FA
:10250000F8DD0023FB6002E0FB680133FB60FA6842
:10251000264B9A42F8DD0023FB6002E0FB680133A2
:10252000FB60FA68214B9A42F8DD0023FB6002E071
:10253000FB680133FB60FA681C4B9A42F8DD00230C
:10254000FB6002E0FB680133FB60FA68174B9A42BC
:10255000F8DD0023FB6002E0FB680133FB60FA68F2
:10256000124B9A42F8DD0023FB6002E0FB68013366
:10257000FB60FA680D4B9A42F8DD0023FB6002E035
:10258000FB680133FB60FA68084B9A42F8DDBB68D0
:102590000133BB60BA687B689A42A8DD1437BD4638
:1025A0005DF8047B704700BF1FA10700DF930400A4
:1025B000B0B5ADF5027D00AF07F10C04206007F166
:1025C00008000160391D0A603A46136007F15C0497
:1025D000BB4B21461A465C23084611461A4601F0B9
:1025E0006FFB04F15C024FF4A473104600211A46FD
:1025F00001F0DCFB07F14C05B24B2C460FCB07C4B6
:10260000237000236B7307F14004AF4A234607CAC7
:1026100003C31A800233120C1A700023E37207F10D
:102620003404AA4A234607CA03C31A8000236381DD
:1026300007F12804A64A234607CA03C31A700023D9
:1026400063720023A37207F11C03A2491A4603C94F
:1026500082E8030000221A810023C7F8043206E052
:10266000FFF7A4FED7F804320133C7F80432D7F8D5
:1026700004320D2BF4DD07F1100207F10C031046B4
:1026800095491A68FFF756FA07F15C03184601F0FE
:10269000D7FB0346C7F800320023C7F8043212E024
:1026A000D7F800325A1CC7F8002207F11001D7F8FA
:1026B00004220A44117807F15C02D154D7F804329D
:1026C0000133C7F80432D7F8044207F11003184663
:1026D00001F0B6FB03469C42E2D307F15C031846C7
:1026E00001F0AEFB0346C7F800320023C7F80432FE
:1026F00012E0D7F800325A1CC7F8002207F14C014B
:10270000D7F804220A44117807F15C02D154D7F8B3
:1027100004320133C7F80432D7F8044207F14C03FE
:10272000184601F08DFB03469C42E2D307F11002EC
:1027300007F10803104668491A68FFF7FBF907F12B
:102740005C03184601F07CFB0346C7F80032002307
:10275000C7F8043212E0D7F800325A1CC7F800223A
:1027600007F11001D7F804220A44117807F15C023E
:10277000D154D7F804320133C7F80432D7F80442F1
:1027800007F11003184601F05BFB03469C42E2D3BD
:1027900007F15C03184601F053FB0346C7F800320B
:1027A0000023C7F8043212E0D7F800325A1CC7F8E9
:1027B000002207F14001D7F804220A44117807F1FA
:1027C0005C02D154D7F804320133C7F80432D7F889
:1027D000044207F14003184601F032FB03469C42D5
:1027E000E2D307F110023B1D10463B491A68FFF780
:1027F000A1F907F15C03184601F022FB0346C7F874
:1028000000320023C7F8043212E0D7F800325A1C15
:10281000C7F8002207F11001D7F804220A44117802
:1028200007F15C02D154D7F804320133C7F80432FF
:10283000D7F8044207F11003184601F001FB0346E4
:102840009C42E2D307F15C03184601F0F9FA034613
:10285000C7F800320023C7F8043212E0D7F800327C
:102860005A1CC7F8002207F13401D7F804220A44A1
:10287000117807F15C02D154D7F804320133C7F85C
:102880000432D7F8044207F13403184601F0D8FAAD
:1028900003469C42E2D307F110023B4610460E4924
:1028A0001A68FFF747F907F15C03184601F0C8FA08
:1028B0000346C7F800320023C7F8043221E000BF06
:1028C000FC3F0008A0410008B0410008BC410008DE
:1028D000C8410008D4410008703F0008D7F8003212
:1028E0005A1CC7F8002207F11001D7F804220A4445
:1028F000117807F15C02D154D7F804320133C7F8DC
:102900000432D7F8044207F11003184601F098FA90
:1029100003469C42E2D307F15C03184601F090FAAB
:102920000346C7F800320023C7F8043212E0D7F894
:1029300000325A1CC7F8002207F12801D7F80422F8
:102940000A44117807F15C02D154D7F804320133FC
:10295000C7F80432D7F8044207F12803184601F0FB
:102960006FFA03469C42E2D307F1100318466F4901
:10297000D7F81822FFF7DEF807F15C03184601F0DC
:102980005FFA0346C7F800320023C7F8043212E0AA
:10299000D7F800325A1CC7F8002207F11001D7F807
:1029A00004220A44117807F15C02D154D7F80432AA
:1029B0000133C7F80432D7F8044207F11003184670
:1029C00001F03EFA03469C42E2D307F15C0318464D
:1029D00001F036FA0346C7F800320023C7F8043284
:1029E00012E0D7F800325A1CC7F8002207F11C0188
:1029F000D7F804220A44117807F15C02D154D7F8C1
:102A000004320133C7F80432D7F8044207F11C033B
:102A1000184601F015FA03469C42E2D307F1100371
:102A200018464249D7F81C22FFF784F807F15C03E7
:102A3000184601F005FA0346C7F800320023C7F82C
:102A4000043212E0D7F800325A1CC7F8002207F10E
:102A50001001D7F804220A44117807F15C02D1541E
:102A6000D7F804320133C7F80432D7F8044207F12B
:102A70001003184601F0E4F903469C42E2D3D7F86C
:102A800000325A1CC7F8002207F15C022221D154FF
:102A9000D7F800325A1CC7F8002207F15C020D215A
:102AA000D15407F15C02D7F80032134400221A70A7
:102AB0001F48204900F058F80420FFF711FD1C487A
:102AC0001D4900F051F80420FFF70AFD18481B4982
:102AD00000F04AF80F20FFF703FD1548184900F0F1
:102AE00043F83020FFF7FCFC1148164900F03CF891
:102AF0001E20FFF7F5FC0E48134900F035F81E20A4
:102B0000FFF7EEFC07F15C030948194600F02CF8CA
:102B10002120FFF7E5FC06480C4900F025F8782055
:102B2000FFF7DEFC07F50277BD46B0BD703F000839
:102B300000380140743F00087C3F0008883F0008CF
:102B4000A83F0008C83F0008D83F0008E83F000839
:102B500080B485B000AF7860FB6818461437BD4676
:102B60005DF8047B704700BF80B584B000AF78602B
:102B700039607868FFF7ECFFF86016E000BF7B680B
:102B80001B889BB203F08003002BF8D03B685A1CD3
:102B90003A601B781A467B689A8000BF7B681B8866
:102BA0009BB203F08003002BF8D03B681B78002B0E
:102BB000E4D11037BD4680BD80B58CB000AF7860E1
:102BC00039600023FB620023BB6200237B62002389
:102BD0003B620023FB617B68FB617B681B8A9BB2C5
:102BE000FB62FA6A4CF6FF731340FB623B68DB88BA
:102BF000FA6A1343FB62FB6A9AB27B681A827B68AB
:102C00009B899BB2FB62FA6A4EF6F3131340FB6298
:102C10003B689A883B681B8913439AB23B685B897F
:102C200013439BB2FA6A1343FB62FB6A9AB27B6856
:102C30009A817B689B8A9BB2FB62FA6A4FF6FF43DC
:102C40001340FB623B689B89FA6A1343FB62FB6A91
:102C50009AB27B689A8207F108031846FEF7C4FF10
:102C6000FA69304B9A4202D17B69BB6201E03B6951
:102C7000BB627B689B899BB29BB21BB2002B0CDAB8
:102C8000BA6A13469B0013449A001A443B681B68B7
:102C90005B00B2FBF3F37B620BE0BA6A13469B0066
:102CA00013449A001A443B681B689B00B2FBF3F381
:102CB0007B627A6A1C4BA3FB02135B091B01FB625C
:102CC000FB6A1B09642202FB03F37A6AD31A3B6294
:102CD0007B689B899BB29BB21BB2002B0DDA3B6ACF
:102CE000DB0003F13202104BA3FB02135B0903F07C
:102CF0000703FA6A1343FB620CE03B6A1B0103F112
:102D00003202094BA3FB02135B0903F00F03FA6ABB
:102D10001343FB62FB6A9AB27B681A813037BD4667
:102D200080BD00BF003801401F85EB5180B483B0E7
:102D300000AF78600B46FB70FB78002B08D07B68F7
:102D40009B899BB243F400539AB27B689A8107E057
:102D50007B689B899BB223F400539AB27B689A816B
:102D60000C37BD465DF8047B704700BFABBE00F07A
:102D700002B800207047002A00F001801060012096
:102D8000704706980188044A914240F0038004305D
:102D900006907047FEE70000ABBE000080B582B031
:102DA00000AF04200121FEF7EFFF3B1D1846FEF7A0
:102DB00047FB0123BB800423FB710323BB713B1D35
:102DC00003481946FEF780FA0837BD4680BD00BFAC
:102DD000000C014080B584B000AFFFF7DFFF00209A
:102DE0000021FEF741FB0123BB600123BB730023DD
:102DF0003B7310237B7307F108031846FFF71EF897
:102E00004FF4407000F016FA06233B7103237B71E8
:102E10000323BB710123FB713B1D184600F01CFA14
:102E20001037BD4680BD00BF80B500AF0120FFF761
:102E300073F8034B1B8801339AB2014B1A8080BD93
:102E40005204002080B586B000AF4FF4017001211C
:102E5000FEF79AFF07F114031846FEF7F1FAFE2376
:102E6000BB820023FB7507F114032F481946FEF7B8
:102E70002BFA00233B6000233B7101237B7100236D
:102E8000BB600023FB6001233B743B462748194687
:102E9000FFF750F82548012102220423FFF740F9EB
:102EA0002248022103220423FFF73AF91F48032195
:102EB00004220423FFF734F91C48042105220423CB
:102EC000FFF72EF91948052106220423FFF728F9F8
:102ED0001648052107220423FFF722F9134807218A
:102EE00008220423FFF71CF910480121FFF774F8AA
:102EF0000E480021FFF78CF80C48FFF7A5F800BF3B
:102F00000A48FFF7B1F80346002BF9D10748FFF74D
:102F1000C3F800BF0548FFF7CFF80346002BF9D1EF
:102F20001837BD4680BD00BF0008014000240140A5
:102F300080B584B000AF0346FB71FB790F4819469A
:102F400001220423FFF7ECF80C480121FFF7CCF82D
:102F500000BF0A480221FFF7B5F90346002BF8D05D
:102F60000648FFF7A1F90346FB6004480021FFF77C
:102F7000BBF8FB6818461037BD4680BD00240140F1
:102F800080B483B000AF78607B681A684FF6FE7338
:102F900013407A6813607B6800221A607B68002205
:102FA0005A607B6800229A607B680022DA607A6847
:102FB000434B9A4206D1434B424A526842F00F02B9
:102FC0005A6077E07A68404B9A4206D13D4B3D4AC1
:102FD000526842F0F0025A606CE07A683B4B9A42C9
:102FE00006D1384B374A526842F470625A6061E049
:102FF0007A68374B9A4206D1324B324A526842F4D1
:1030000070425A6056E07A68324B9A4206D12D4B94
:103010002C4A526842F470225A604BE07A682E4B78
:103020009A4206D1274B274A526842F470025A60EE
:1030300040E07A68294B9A4206D1224B214A5268D5
:1030400042F070625A6035E07A68254B9A4206D1A8
:10305000244B244A526842F00F025A602AE07A68F0
:10306000214B9A4206D11F4B1E4A526842F0F00291
:103070005A601FE07A681D4B9A4206D1194B194AD3
:10308000526842F470625A6014E07A68184B9A42AF
:1030900006D1144B134A526842F470425A6009E058
:1030A0007A68144B9A4205D10E4B0E4A526842F48C
:1030B00070225A600C37BD465DF8047B704700BF34
:1030C00008000240000002401C00024030000240A4
:1030D00044000240580002406C0002408000024060
:1030E00008040240000402401C0402403004024074
:1030F000440402405804024080B485B000AF7860B8
:1031000039600023FB607B681B68FB60FB6823F46D
:10311000FF4323F07003FB603B689A683B681B6ABF
:103120001A433B681B691A433B685B691A433B6857
:103130009B691A433B68DB691A433B685B6A1A4325
:103140003B689B6A1343FA681343FB607B68FA6829
:103150001A603B68DA687B685A603B681A687B686B
:103160009A603B685A687B68DA601437BD465DF840
:10317000047B704780B483B000AF78600B46FB706F
:10318000FB78002B06D07B681B6843F001027B684C
:103190001A6006E07B681A684FF6FE7313407A687F
:1031A00013600C37BD465DF8047B704780B485B072
:1031B00000AF78600023FB730023BB607B6803F0E3
:1031C0008053002B03D00C4B1B68BB6002E00B4B01
:1031D0001B68BB60BA687B681340002B02D00123D8
:1031E000FB7301E00023FB73FB7B18461437BD46DD
:1031F0005DF8047B704700BF0004024000000240FD
:1032000080B483B000AF78607B6803F08053002BFC
:1032100003D0064B7A685A6002E0054B7A685A6020
:103220000C37BD465DF8047B704700BF00040240C8
:103230000000024080B483B000AF7860054A7B682C
:1032400043F0BF6343F40033D3600C37BD465DF8F1
:10325000047B704700ED00E080B487B000AF786079
:1032600000237B6100233B610F23FB607B68DB78DD
:10327000002B38D0264BDB68DB4303F4E0631B0AEA
:103280007B617B69C3F104033B617B69FA6822FAC5
:1032900003F3FB607B685B781A463B6902FA03F331
:1032A0007B617B689B781A46FB6813407A691343FD
:1032B0007B617B691B017B6116497B681B787A699E
:1032C000D2B20B4483F80023124B7A681278520969
:1032D000D2B27968097801F01F01012000FA01F1EA
:1032E00043F822100EE00B4B7A6812785209D2B2E2
:1032F0007968097801F01F01012000FA01F12032FC
:1033000043F822101C37BD465DF8047B704700BFB0
:1033100000ED00E000E100E080B58AB000AF786029
:1033200039600023FB8400237B840423BB84574B38
:10333000FB617B689B88FB84FB8C23F03F03FB8451
:1033400007F108031846FEF74FFC3B69FB61FA6979
:103350004F4BA3FB02139B0C7B84FA8C7B8C134397
:10336000FB847B68FA8C9A807B681B889BB223F075
:1033700001039AB27B681A800023FB843B681A68B9
:10338000444B9A4215D83B681B685B00FA69B2FB54
:10339000F3F3BB84BB8C032B01D80423BB84FA8CCE
:1033A000BB8C1343FB847B8C01339AB27B681A84F9
:1033B00040E03B68DA884BF6FF739A4209D13B68DC
:1033C0001A6813465B001344FA69B2FBF3F3BB843B
:1033D0000EE03B681A6813469B0013449A0013449E
:1033E000FA69B2FBF3F3BB84BB8C43F48043BB8428
:1033F000BB8CC3F30B03002B03D1BB8C43F0010345
:10340000BB84BA8CFB8C13439BB26FEA43436FEAD5
:103410005343FB847B8C4FF4967202FB03F31E4AEA
:1034200082FB03129211DB17D31A9BB201339AB2BB
:103430007B681A847B68FA8C9A837B681B889BB2B2
:1034400043F001039AB27B681A807B681B88FB8477
:10345000FB8C23F4816323F00203FB843B689A888E
:103460003B685B8913439AB2FB8C1343FB847B68F4
:10347000FA8C1A803B689A893B681B8913439AB27D
:103480007B681A812837BD4680BD00BF00127A00D4
:1034900083DE1B43A0860100D34D621080B483B04D
:1034A00000AF78600B46FB70FB78002B08D07B6880
:1034B0001B889BB243F400739AB27B681A8007E0C2
:1034C0007B681B889BB223F400739AB27B681A80D6
:1034D0000C37BD465DF8047B704700BF81F00041AA
:1034E00002E000BF83F0004330B54FEA41044FEAE9
:1034F000430594EA050F08BF90EA020F1FBF54EA84
:10350000000C55EA020C7FEA645C7FEA655C00F01F
:10351000E2804FEA5454D4EB5555B8BF6D420CDDF0
:103520002C4480EA020281EA030382EA000083EA73
:10353000010180EA020281EA0303362D88BF30BD13
:1035400011F0004F4FEA01314FF4801C4CEA113169
:1035500002D0404261EB410113F0004F4FEA0333C8
:103560004CEA133302D0524263EB430394EA050F53
:1035700000F0A780A4F10104D5F1200E0DDB02FAC2
:103580000EFC22FA05F2801841F1000103FA0EF256
:10359000801843FA05F359410EE0A5F120050EF11C
:1035A000200E012A03FA0EFC28BF4CF0020C43FA4D
:1035B00005F3C01851EBE37101F0004507D54FF05A
:1035C000000EDCF1000C7EEB00006EEB0101B1F5AA
:1035D000801F1BD3B1F5001F0CD349085FEA3000F0
:1035E0004FEA3C0C04F101044FEA445212F5800FFB
:1035F00080F09A80BCF1004F08BF5FEA500C50F198
:10360000000041EB045141EA050130BD5FEA4C0C7A
:10361000404141EB010111F4801FA4F10104E9D103
:1036200091F0000F04BF01460020B1FA81F308BFFA
:103630002033A3F10B03B3F120020CDA0C3208DDC6
:1036400002F1140CC2F10C0201FA0CF021FA02F1A1
:103650000CE002F11402D8BFC2F1200C01FA02F111
:1036600020FA0CFCDCBF41EA0C019040E41AA2BF36
:1036700001EB0451294330BD6FEA04041F3C1CDAFE
:103680000C340EDC04F11404C4F1200220FA04F01E
:1036900001FA02F340EA030021FA04F345EA0301C8
:1036A00030BDC4F10C04C4F1200220FA02F001FA8A
:1036B00004F340EA0300294630BD21FA04F029460C
:1036C00030BD94F0000F83F4801306BF81F48011A5
:1036D0000134013D4EE77FEA645C18BF7FEA655C18
:1036E00029D094EA050F08BF90EA020F05D054EAEA
:1036F000000C04BF1946104630BD91EA030F1EBFEF
:103700000021002030BD5FEA545C05D140004941F2
:1037100028BF41F0004130BD14F580043CBF01F5E5
:10372000801130BD01F0004545F0FE4141F47001CB
:103730004FF0000030BD7FEA645C1ABF19461046A6
:103740007FEA655C1CBF0B46024650EA013406BFA7
:1037500052EA033591EA030F41F4002130BD00BF66
:1037600090F0000F04BF0021704730B54FF4806423
:1037700004F132044FF000054FF0000150E700BFA4
:1037800090F0000F04BF0021704730B54FF4806403
:1037900004F1320410F0004548BF40424FF00001F0
:1037A0003EE700BF42004FEAE2014FEA31014FEA33
:1037B00002701FBF12F07F4393F07F4F81F0605182
:1037C000704792F0000F14BF93F07F4F704730B5F1
:1037D0004FF4607401F0004521F0004120E700BF84
:1037E00050EA010208BF704730B54FF000050AE00B
:1037F00050EA010208BF704730B511F0004502D50C
:10380000404261EB41014FF4806404F132045FEA0D
:10381000915C3FF4DCAE4FF003025FEADC0C18BFB2
:1038200003325FEADC0C18BF033202EBDC02C2F1A8
:10383000200300FA03FC20FA02F001FA03FE40EA3A
:103840000E0021FA02F11444C1E600BF70B54FF03A
:10385000FF0C4CF4E06C1CEA11541DBF1CEA13551C
:1038600094EA0C0F95EA0C0F00F0DEF82C4481EA84
:10387000030621EA4C5123EA4C5350EA013518BFA4
:1038800052EA033541F4801143F4801338D0A0FB91
:1038900002CE4FF00005E1FB02E506F00042E0FB3E
:1038A00003E54FF00006E1FB03569CF0000F18BF44
:1038B0004EF0010EA4F1FF04B6F5007F64F54074EC
:1038C00004D25FEA4E0E6D4146EB060642EAC6217F
:1038D00041EA55514FEAC52040EA5E504FEACE2EEC
:1038E000B4F1FD0C88BFBCF5E06F1ED8BEF1004FEF
:1038F00008BF5FEA500E50F1000041EB045170BD6B
:1039000006F0004646EA010140EA020081EA0301AE
:10391000B4EB5C04C2BFD4EB0C0541EA045170BDAA
:1039200041F480114FF0000E013C00F3AB8014F124
:10393000360FDEBF002001F0004170BDC4F100046D
:10394000203C35DA0C341BDC04F11404C4F12005EE
:1039500000FA05F320FA04F001FA05F240EA020049
:1039600001F0004221F0004110EBD37021FA04F67F
:1039700042EB06015EEA430E08BF20EAD37070BD39
:10398000C4F10C04C4F1200500FA04F320FA05F098
:1039900001FA04F240EA020001F0004110EBD3709A
:1039A00041F100015EEA430E08BF20EAD37070BD0A
:1039B000C4F1200500FA05F24EEA020E20FA04F3E3
:1039C00001FA05F243EA020321FA04F001F0004192
:1039D00021FA04F220EA020000EBD3705EEA430E03
:1039E00008BF20EAD37070BD94F0000F0FD101F032
:1039F0000046400041EB010111F4801F08BF013C6B
:103A0000F7D041EA060195F0000F18BF704703F0A8
:103A10000046520043EB030313F4801F08BF013D2F
:103A2000F7D043EA0603704794EA0C0F0CEA1355EB
:103A300018BF95EA0C0F0CD050EA410618BF52EAA5
:103A40004306D1D181EA030101F000414FF00000AB
:103A500070BD50EA410606BF1046194652EA4306B9
:103A600019D094EA0C0F02D150EA013613D195EA2D
:103A70000C0F05D152EA03361CBF104619460AD175
:103A800081EA030101F0004141F0FE4141F470017F
:103A90004FF0000070BD41F0FE4141F4780170BD6F
:103AA00070B54FF0FF0C4CF4E06C1CEA11541DBFD4
:103AB0001CEA135594EA0C0F95EA0C0F00F0A7F8D6
:103AC000A4EB050481EA030E52EA03354FEA013103
:103AD00000F088804FEA03334FF0805545EA131316
:103AE00043EA12634FEA022245EA111545EA1065DE
:103AF0004FEA00260EF000419D4208BF964244F175
:103B0000FD0404F5407402D25B084FEA3202B61A93
:103B100065EB03055B084FEA32024FF480104FF467
:103B2000002CB6EB020E75EB030E22BFB61A7546DB
:103B300040EA0C005B084FEA3202B6EB020E75EB6E
:103B4000030E22BFB61A754640EA5C005B084FEAD6
:103B50003202B6EB020E75EB030E22BFB61A7546A3
:103B600040EA9C005B084FEA3202B6EB020E75EBAE
:103B7000030E22BFB61A754640EADC0055EA060E6F
:103B800018D04FEA051545EA16754FEA06164FEAB2
:103B9000C30343EA52734FEAC2025FEA1C1CC0D15E
:103BA00011F4801F0BD141EA00014FF000004FF0EB
:103BB000004CB6E711F4801F04BF01430020B4F1AC
:103BC000FD0C88BFBCF5E06F3FF6AFAEB5EB030C64
:103BD00004BFB6EB020C5FEA500C50F1000041EB61
:103BE000045170BD0EF0004E4EEA113114EB5C042E
:103BF000C2BFD4EB0C0541EA045170BD41F4801101
:103C00004FF0000E013C90E645EA060E8DE60CEA08
:103C1000135594EA0C0F08BF95EA0C0F3FF43BAF25
:103C200094EA0C0F0AD150EA01347FF434AF95EADC
:103C30000C0F7FF425AF104619462CE795EA0C0FC0
:103C400006D152EA03353FF4FDAE1046194622E78D
:103C500050EA410618BF52EA43067FF4C5AE50EA67
:103C600041047FF40DAF52EA43057FF4EBAE12E757
:103C70004FEA410212F5001215D211D56FF4787394
:103C8000B3EB625212D94FEAC12343F0004343EA37
:103C9000505311F0004F23FA02F018BF4042704712
:103CA0004FF00000704750EA013005D111F000409C
:103CB00008BF6FF0004070474FF00000704700BF32
:103CC000844641EA000313F0030349D1403A23D369
:103CD0000B6803604B6843608B688360CB68C3608C
:103CE0000B6903614B6943618B698361CB69C36174
:103CF0000B6A03624B6A43628B6A8362CB6AC3625C
:103D00000B6B03634B6B43638B6B8363CB6BC36343
:103D100040304031403ADBD230320BD30B68036085
:103D20004B6843608B688360CB68C3601030103190
:103D3000103AF3D20C3205D351F8043B40F8043B5F
:103D4000043AF9D2043208D0D2071CBF11F8013B63
:103D500000F8013B01D30B8803806046704700BF29
:103D6000082A13D38B07B1D010F00303AED0C3F1F0
:103D70000403D21ADB071CBF11F8013B00F8013B1A
:103D8000A4D331F8023B20F8023B9FE7043AD9D391
:103D9000013A11F8013B00F8013BF9D20B780370AE
:103DA0004B7843708B78837060467047F0B484071B
:103DB00043D0541E002A3ED0CDB2034603E0621E1B
:103DC000002C38D0144603F8015B9A07F7D1032C76
:103DD0002AD9CDB245EA05250F2C45EA054515D966
:103DE000A4F110073F0903F1100606EB07161A4667
:103DF000156055609560D5601032B242F8D104F07C
:103E00000F040137032C03EB07130DD91E4622467E
:103E1000043A032A46F8045BFAD8221F22F0030270
:103E20000432134404F003042CB1C9B21C4403F857
:103E3000011BA342FBD1F0BC704714460346C6E702
:103E400020F0030110F00300C0F1000051F8043B22
:103E500000F1040C4FEACC0C6FF000021CBF22FAF8
:103E60000CF213434FF0010C4CEA0C2C4CEA0C4CB6
:103E7000A3EB0C0222EA030212EACC1204BF51F8AF
:103E8000043B0430F4D013F0FF0F1FBF013013F4D4
:103E90007F4F013013F47F0F18BF0130704700BF10
:103EA00009656E636F6465723A2025642C20727018
:103EB0006D3A2025642C2073706565643A20256472
:103EC0000A00000054203D20256420430A0D000014
:103ED00070203D2025642050610A0D00616C7469DA
:103EE00074756465203D2025640A0D0053656E736A
:103EF0006F722069732070726573656E740A0D00AD
:103F000053656E736F72206973204E4F5420707228
:103F10006573656E740A0D00737464696F2E633A7D
:103F200020696E637265617365204D41585F53541B
:103F300052494E475F53495A450A0D0041542B439D
:103F40004D47463D310D00004154202B20434D4745
:103F500053203D20222B363238353639353733372A
:103F6000313132220D0000007765690D000000003C
:103F70002564000041542B4353510D0041542B4301
:103F8000474154543F0D000041542B53415042527D
:103F90003D332C312C22434F4E54595045222C2274
:103FA00047505253220D000041542B53415042526E
:103FB0003D332C312C2241504E222C22696E7465E7
:103FC000726E6574220D000041542B5341504252D1
:103FD0003D312C310D00000041542B4854545049C0
:103FE0004E49540D0000000041542B485454504198
:103FF0004354494F4E3D300D0000000041542B48C2
:10400000545450504152413D2255524C222C22686A
:104010007474703A2F2F63313436656334332E6EE7
:1040200067726F6B2E696F2F6D656D6365322D77CB
:1040300065622F7765622F696E6465782E7068708F
:104040002F6C6F636174696F6E2F67657473756829
:10405000753F737568753D000000000000000000AA
:104060000000000000000000000000000000000050
:104070000000000000000000000000000000000040
:104080000000000000000000000000000000000030
:104090000000000000000000000000000000000020
:1040A0000000000000000000000000000000000010
:1040B0000000000000000000000000000000000000
:1040C00000000000000000000000000000000000F0
:1040D00000000000000000000000000000000000E0
:1040E00000000000000000000000000000000000D0
:1040F00000000000000000000000000000000000C0
:1041000000000000000000000000000000000000AF
:10411000000000000000000000000000000000009F
:10412000000000000000000000000000000000008F
:10413000000000000000000000000000000000007F
:10414000000000000000000000000000000000006F
:10415000000000000000000000000000000000005F
:10416000000000000000000000000000000000004F
:10417000000000000000000000000000000000003F
:10418000000000000000000000000000000000002F
:10419000000000000000000000000000000000001F
:1041A000266B656C656D626162616E3D00000000AA
:1041B000266B6563416E67696E3D00002674656B12
:1041C000616E616E3D000000266361686179613D4A
:1041D000000000002668756A616E3D000000000066
:1041E000AA00000000000000000000000000000025
:1041F00001000000000000000000000000000000BE
:1042000000000000000000000000000000000000AE
:10421000000000000000000000000000000000009E
:10422000000000000000000000000000000000008E
:10423000000000000000000000000000000000007E
:104610000800002000000000000000000102030468
:0C46200001020304060708090204060852
:0400000508000000EF
:00000001FF
